{
  "contractName": "ERC1400TokensValidatorMock",
  "abi": [
    {
      "anonymous": false,
      "inputs": [
        {
          "indexed": true,
          "internalType": "address",
          "name": "token",
          "type": "address"
        },
        {
          "indexed": true,
          "internalType": "address",
          "name": "account",
          "type": "address"
        }
      ],
      "name": "AllowlistAdminAdded",
      "type": "event"
    },
    {
      "anonymous": false,
      "inputs": [
        {
          "indexed": true,
          "internalType": "address",
          "name": "token",
          "type": "address"
        },
        {
          "indexed": true,
          "internalType": "address",
          "name": "account",
          "type": "address"
        }
      ],
      "name": "AllowlistAdminRemoved",
      "type": "event"
    },
    {
      "anonymous": false,
      "inputs": [
        {
          "indexed": true,
          "internalType": "address",
          "name": "token",
          "type": "address"
        },
        {
          "indexed": true,
          "internalType": "address",
          "name": "account",
          "type": "address"
        }
      ],
      "name": "AllowlistedAdded",
      "type": "event"
    },
    {
      "anonymous": false,
      "inputs": [
        {
          "indexed": true,
          "internalType": "address",
          "name": "token",
          "type": "address"
        },
        {
          "indexed": true,
          "internalType": "address",
          "name": "account",
          "type": "address"
        }
      ],
      "name": "AllowlistedRemoved",
      "type": "event"
    },
    {
      "anonymous": false,
      "inputs": [
        {
          "indexed": true,
          "internalType": "address",
          "name": "token",
          "type": "address"
        },
        {
          "indexed": true,
          "internalType": "address",
          "name": "account",
          "type": "address"
        }
      ],
      "name": "BlocklistAdminAdded",
      "type": "event"
    },
    {
      "anonymous": false,
      "inputs": [
        {
          "indexed": true,
          "internalType": "address",
          "name": "token",
          "type": "address"
        },
        {
          "indexed": true,
          "internalType": "address",
          "name": "account",
          "type": "address"
        }
      ],
      "name": "BlocklistAdminRemoved",
      "type": "event"
    },
    {
      "anonymous": false,
      "inputs": [
        {
          "indexed": true,
          "internalType": "address",
          "name": "token",
          "type": "address"
        },
        {
          "indexed": true,
          "internalType": "address",
          "name": "account",
          "type": "address"
        }
      ],
      "name": "BlocklistedAdded",
      "type": "event"
    },
    {
      "anonymous": false,
      "inputs": [
        {
          "indexed": true,
          "internalType": "address",
          "name": "token",
          "type": "address"
        },
        {
          "indexed": true,
          "internalType": "address",
          "name": "account",
          "type": "address"
        }
      ],
      "name": "BlocklistedRemoved",
      "type": "event"
    },
    {
      "anonymous": false,
      "inputs": [
        {
          "indexed": true,
          "internalType": "address",
          "name": "token",
          "type": "address"
        },
        {
          "indexed": true,
          "internalType": "address",
          "name": "account",
          "type": "address"
        }
      ],
      "name": "CertificateSignerAdded",
      "type": "event"
    },
    {
      "anonymous": false,
      "inputs": [
        {
          "indexed": true,
          "internalType": "address",
          "name": "token",
          "type": "address"
        },
        {
          "indexed": true,
          "internalType": "address",
          "name": "account",
          "type": "address"
        }
      ],
      "name": "CertificateSignerRemoved",
      "type": "event"
    },
    {
      "anonymous": false,
      "inputs": [
        {
          "indexed": true,
          "internalType": "address",
          "name": "token",
          "type": "address"
        },
        {
          "indexed": true,
          "internalType": "bytes32",
          "name": "holdId",
          "type": "bytes32"
        },
        {
          "indexed": false,
          "internalType": "bytes32",
          "name": "partition",
          "type": "bytes32"
        },
        {
          "indexed": false,
          "internalType": "address",
          "name": "sender",
          "type": "address"
        },
        {
          "indexed": false,
          "internalType": "address",
          "name": "recipient",
          "type": "address"
        },
        {
          "indexed": true,
          "internalType": "address",
          "name": "notary",
          "type": "address"
        },
        {
          "indexed": false,
          "internalType": "uint256",
          "name": "value",
          "type": "uint256"
        },
        {
          "indexed": false,
          "internalType": "uint256",
          "name": "expiration",
          "type": "uint256"
        },
        {
          "indexed": false,
          "internalType": "bytes32",
          "name": "secretHash",
          "type": "bytes32"
        }
      ],
      "name": "HoldCreated",
      "type": "event"
    },
    {
      "anonymous": false,
      "inputs": [
        {
          "indexed": true,
          "internalType": "address",
          "name": "token",
          "type": "address"
        },
        {
          "indexed": false,
          "internalType": "bytes32",
          "name": "holdId",
          "type": "bytes32"
        },
        {
          "indexed": true,
          "internalType": "address",
          "name": "notary",
          "type": "address"
        },
        {
          "indexed": false,
          "internalType": "uint256",
          "name": "heldValue",
          "type": "uint256"
        },
        {
          "indexed": false,
          "internalType": "uint256",
          "name": "transferredValue",
          "type": "uint256"
        },
        {
          "indexed": false,
          "internalType": "bytes32",
          "name": "secret",
          "type": "bytes32"
        }
      ],
      "name": "HoldExecuted",
      "type": "event"
    },
    {
      "anonymous": false,
      "inputs": [
        {
          "indexed": true,
          "internalType": "address",
          "name": "token",
          "type": "address"
        },
        {
          "indexed": false,
          "internalType": "bytes32",
          "name": "holdId",
          "type": "bytes32"
        },
        {
          "indexed": true,
          "internalType": "address",
          "name": "notary",
          "type": "address"
        },
        {
          "indexed": false,
          "internalType": "uint256",
          "name": "heldValue",
          "type": "uint256"
        },
        {
          "indexed": false,
          "internalType": "uint256",
          "name": "transferredValue",
          "type": "uint256"
        },
        {
          "indexed": false,
          "internalType": "bytes32",
          "name": "secret",
          "type": "bytes32"
        }
      ],
      "name": "HoldExecutedAndKeptOpen",
      "type": "event"
    },
    {
      "anonymous": false,
      "inputs": [
        {
          "indexed": true,
          "internalType": "address",
          "name": "token",
          "type": "address"
        },
        {
          "indexed": false,
          "internalType": "bytes32",
          "name": "holdId",
          "type": "bytes32"
        },
        {
          "indexed": true,
          "internalType": "address",
          "name": "notary",
          "type": "address"
        },
        {
          "indexed": false,
          "internalType": "enum HoldStatusCode",
          "name": "status",
          "type": "uint8"
        }
      ],
      "name": "HoldReleased",
      "type": "event"
    },
    {
      "anonymous": false,
      "inputs": [
        {
          "indexed": true,
          "internalType": "address",
          "name": "token",
          "type": "address"
        },
        {
          "indexed": false,
          "internalType": "bytes32",
          "name": "holdId",
          "type": "bytes32"
        },
        {
          "indexed": true,
          "internalType": "address",
          "name": "notary",
          "type": "address"
        },
        {
          "indexed": false,
          "internalType": "uint256",
          "name": "oldExpiration",
          "type": "uint256"
        },
        {
          "indexed": false,
          "internalType": "uint256",
          "name": "newExpiration",
          "type": "uint256"
        }
      ],
      "name": "HoldRenewed",
      "type": "event"
    },
    {
      "anonymous": false,
      "inputs": [
        {
          "indexed": true,
          "internalType": "address",
          "name": "token",
          "type": "address"
        },
        {
          "indexed": false,
          "internalType": "address",
          "name": "account",
          "type": "address"
        }
      ],
      "name": "Paused",
      "type": "event"
    },
    {
      "anonymous": false,
      "inputs": [
        {
          "indexed": true,
          "internalType": "address",
          "name": "token",
          "type": "address"
        },
        {
          "indexed": true,
          "internalType": "address",
          "name": "account",
          "type": "address"
        }
      ],
      "name": "PauserAdded",
      "type": "event"
    },
    {
      "anonymous": false,
      "inputs": [
        {
          "indexed": true,
          "internalType": "address",
          "name": "token",
          "type": "address"
        },
        {
          "indexed": true,
          "internalType": "address",
          "name": "account",
          "type": "address"
        }
      ],
      "name": "PauserRemoved",
      "type": "event"
    },
    {
      "anonymous": false,
      "inputs": [
        {
          "indexed": true,
          "internalType": "address",
          "name": "token",
          "type": "address"
        },
        {
          "indexed": false,
          "internalType": "address",
          "name": "account",
          "type": "address"
        }
      ],
      "name": "Unpaused",
      "type": "event"
    },
    {
      "inputs": [
        {
          "internalType": "address",
          "name": "token",
          "type": "address"
        },
        {
          "internalType": "address",
          "name": "account",
          "type": "address"
        }
      ],
      "name": "addAllowlistAdmin",
      "outputs": [],
      "stateMutability": "nonpayable",
      "type": "function"
    },
    {
      "inputs": [
        {
          "internalType": "address",
          "name": "token",
          "type": "address"
        },
        {
          "internalType": "address",
          "name": "account",
          "type": "address"
        }
      ],
      "name": "addAllowlisted",
      "outputs": [],
      "stateMutability": "nonpayable",
      "type": "function"
    },
    {
      "inputs": [
        {
          "internalType": "address",
          "name": "token",
          "type": "address"
        },
        {
          "internalType": "address",
          "name": "account",
          "type": "address"
        }
      ],
      "name": "addBlocklistAdmin",
      "outputs": [],
      "stateMutability": "nonpayable",
      "type": "function"
    },
    {
      "inputs": [
        {
          "internalType": "address",
          "name": "token",
          "type": "address"
        },
        {
          "internalType": "address",
          "name": "account",
          "type": "address"
        }
      ],
      "name": "addBlocklisted",
      "outputs": [],
      "stateMutability": "nonpayable",
      "type": "function"
    },
    {
      "inputs": [
        {
          "internalType": "address",
          "name": "token",
          "type": "address"
        },
        {
          "internalType": "address",
          "name": "account",
          "type": "address"
        }
      ],
      "name": "addCertificateSigner",
      "outputs": [],
      "stateMutability": "nonpayable",
      "type": "function"
    },
    {
      "inputs": [
        {
          "internalType": "address",
          "name": "token",
          "type": "address"
        },
        {
          "internalType": "address",
          "name": "account",
          "type": "address"
        }
      ],
      "name": "addPauser",
      "outputs": [],
      "stateMutability": "nonpayable",
      "type": "function"
    },
    {
      "inputs": [
        {
          "internalType": "address",
          "name": "token",
          "type": "address"
        },
        {
          "internalType": "address",
          "name": "account",
          "type": "address"
        }
      ],
      "name": "balanceOnHold",
      "outputs": [
        {
          "internalType": "uint256",
          "name": "",
          "type": "uint256"
        }
      ],
      "stateMutability": "view",
      "type": "function"
    },
    {
      "inputs": [
        {
          "internalType": "address",
          "name": "token",
          "type": "address"
        },
        {
          "internalType": "bytes32",
          "name": "partition",
          "type": "bytes32"
        },
        {
          "internalType": "address",
          "name": "account",
          "type": "address"
        }
      ],
      "name": "balanceOnHoldByPartition",
      "outputs": [
        {
          "internalType": "uint256",
          "name": "",
          "type": "uint256"
        }
      ],
      "stateMutability": "view",
      "type": "function"
    },
    {
      "inputs": [
        {
          "internalType": "bytes32",
          "name": "interfaceHash",
          "type": "bytes32"
        },
        {
          "internalType": "address",
          "name": "",
          "type": "address"
        }
      ],
      "name": "canImplementInterfaceForAddress",
      "outputs": [
        {
          "internalType": "bytes32",
          "name": "",
          "type": "bytes32"
        }
      ],
      "stateMutability": "view",
      "type": "function"
    },
    {
      "inputs": [
        {
          "components": [
            {
              "internalType": "address",
              "name": "token",
              "type": "address"
            },
            {
              "internalType": "bytes",
              "name": "payload",
              "type": "bytes"
            },
            {
              "internalType": "bytes32",
              "name": "partition",
              "type": "bytes32"
            },
            {
              "internalType": "address",
              "name": "operator",
              "type": "address"
            },
            {
              "internalType": "address",
              "name": "from",
              "type": "address"
            },
            {
              "internalType": "address",
              "name": "to",
              "type": "address"
            },
            {
              "internalType": "uint256",
              "name": "value",
              "type": "uint256"
            },
            {
              "internalType": "bytes",
              "name": "data",
              "type": "bytes"
            },
            {
              "internalType": "bytes",
              "name": "operatorData",
              "type": "bytes"
            }
          ],
          "internalType": "struct IERC1400TokensValidator.ValidateData",
          "name": "data",
          "type": "tuple"
        }
      ],
      "name": "canValidate",
      "outputs": [
        {
          "internalType": "bool",
          "name": "",
          "type": "bool"
        }
      ],
      "stateMutability": "view",
      "type": "function"
    },
    {
      "inputs": [
        {
          "internalType": "address",
          "name": "token",
          "type": "address"
        },
        {
          "internalType": "bytes32",
          "name": "holdId",
          "type": "bytes32"
        },
        {
          "internalType": "uint256",
          "name": "value",
          "type": "uint256"
        },
        {
          "internalType": "bytes32",
          "name": "secret",
          "type": "bytes32"
        }
      ],
      "name": "executeHold",
      "outputs": [],
      "stateMutability": "nonpayable",
      "type": "function"
    },
    {
      "inputs": [
        {
          "internalType": "address",
          "name": "token",
          "type": "address"
        },
        {
          "internalType": "bytes32",
          "name": "holdId",
          "type": "bytes32"
        },
        {
          "internalType": "uint256",
          "name": "value",
          "type": "uint256"
        },
        {
          "internalType": "bytes32",
          "name": "secret",
          "type": "bytes32"
        }
      ],
      "name": "executeHoldAndKeepOpen",
      "outputs": [],
      "stateMutability": "nonpayable",
      "type": "function"
    },
    {
      "inputs": [
        {
          "internalType": "address",
          "name": "token",
          "type": "address"
        },
        {
          "internalType": "bytes32",
          "name": "partition",
          "type": "bytes32"
        }
      ],
      "name": "granularityByPartition",
      "outputs": [
        {
          "internalType": "uint256",
          "name": "",
          "type": "uint256"
        }
      ],
      "stateMutability": "view",
      "type": "function"
    },
    {
      "inputs": [
        {
          "internalType": "address",
          "name": "token",
          "type": "address"
        },
        {
          "internalType": "bytes32",
          "name": "holdId",
          "type": "bytes32"
        },
        {
          "internalType": "address",
          "name": "recipient",
          "type": "address"
        },
        {
          "internalType": "address",
          "name": "notary",
          "type": "address"
        },
        {
          "internalType": "bytes32",
          "name": "partition",
          "type": "bytes32"
        },
        {
          "internalType": "uint256",
          "name": "value",
          "type": "uint256"
        },
        {
          "internalType": "uint256",
          "name": "timeToExpiration",
          "type": "uint256"
        },
        {
          "internalType": "bytes32",
          "name": "secretHash",
          "type": "bytes32"
        },
        {
          "internalType": "bytes",
          "name": "certificate",
          "type": "bytes"
        }
      ],
      "name": "hold",
      "outputs": [
        {
          "internalType": "bool",
          "name": "",
          "type": "bool"
        }
      ],
      "stateMutability": "nonpayable",
      "type": "function"
    },
    {
      "inputs": [
        {
          "internalType": "address",
          "name": "token",
          "type": "address"
        },
        {
          "internalType": "bytes32",
          "name": "holdId",
          "type": "bytes32"
        },
        {
          "internalType": "address",
          "name": "sender",
          "type": "address"
        },
        {
          "internalType": "address",
          "name": "recipient",
          "type": "address"
        },
        {
          "internalType": "address",
          "name": "notary",
          "type": "address"
        },
        {
          "internalType": "bytes32",
          "name": "partition",
          "type": "bytes32"
        },
        {
          "internalType": "uint256",
          "name": "value",
          "type": "uint256"
        },
        {
          "internalType": "uint256",
          "name": "timeToExpiration",
          "type": "uint256"
        },
        {
          "internalType": "bytes32",
          "name": "secretHash",
          "type": "bytes32"
        },
        {
          "internalType": "bytes",
          "name": "certificate",
          "type": "bytes"
        }
      ],
      "name": "holdFrom",
      "outputs": [
        {
          "internalType": "bool",
          "name": "",
          "type": "bool"
        }
      ],
      "stateMutability": "nonpayable",
      "type": "function"
    },
    {
      "inputs": [
        {
          "internalType": "address",
          "name": "token",
          "type": "address"
        },
        {
          "internalType": "bytes32",
          "name": "holdId",
          "type": "bytes32"
        },
        {
          "internalType": "address",
          "name": "sender",
          "type": "address"
        },
        {
          "internalType": "address",
          "name": "recipient",
          "type": "address"
        },
        {
          "internalType": "address",
          "name": "notary",
          "type": "address"
        },
        {
          "internalType": "bytes32",
          "name": "partition",
          "type": "bytes32"
        },
        {
          "internalType": "uint256",
          "name": "value",
          "type": "uint256"
        },
        {
          "internalType": "uint256",
          "name": "expiration",
          "type": "uint256"
        },
        {
          "internalType": "bytes32",
          "name": "secretHash",
          "type": "bytes32"
        },
        {
          "internalType": "bytes",
          "name": "certificate",
          "type": "bytes"
        }
      ],
      "name": "holdFromWithExpirationDate",
      "outputs": [
        {
          "internalType": "bool",
          "name": "",
          "type": "bool"
        }
      ],
      "stateMutability": "nonpayable",
      "type": "function"
    },
    {
      "inputs": [
        {
          "internalType": "address",
          "name": "token",
          "type": "address"
        },
        {
          "internalType": "bytes32",
          "name": "holdId",
          "type": "bytes32"
        },
        {
          "internalType": "address",
          "name": "recipient",
          "type": "address"
        },
        {
          "internalType": "address",
          "name": "notary",
          "type": "address"
        },
        {
          "internalType": "bytes32",
          "name": "partition",
          "type": "bytes32"
        },
        {
          "internalType": "uint256",
          "name": "value",
          "type": "uint256"
        },
        {
          "internalType": "uint256",
          "name": "expiration",
          "type": "uint256"
        },
        {
          "internalType": "bytes32",
          "name": "secretHash",
          "type": "bytes32"
        },
        {
          "internalType": "bytes",
          "name": "certificate",
          "type": "bytes"
        }
      ],
      "name": "holdWithExpirationDate",
      "outputs": [
        {
          "internalType": "bool",
          "name": "",
          "type": "bool"
        }
      ],
      "stateMutability": "nonpayable",
      "type": "function"
    },
    {
      "inputs": [
        {
          "internalType": "address",
          "name": "token",
          "type": "address"
        },
        {
          "internalType": "address",
          "name": "account",
          "type": "address"
        }
      ],
      "name": "isAllowlistAdmin",
      "outputs": [
        {
          "internalType": "bool",
          "name": "",
          "type": "bool"
        }
      ],
      "stateMutability": "view",
      "type": "function"
    },
    {
      "inputs": [
        {
          "internalType": "address",
          "name": "token",
          "type": "address"
        },
        {
          "internalType": "address",
          "name": "account",
          "type": "address"
        }
      ],
      "name": "isAllowlisted",
      "outputs": [
        {
          "internalType": "bool",
          "name": "",
          "type": "bool"
        }
      ],
      "stateMutability": "view",
      "type": "function"
    },
    {
      "inputs": [
        {
          "internalType": "address",
          "name": "token",
          "type": "address"
        },
        {
          "internalType": "address",
          "name": "account",
          "type": "address"
        }
      ],
      "name": "isBlocklistAdmin",
      "outputs": [
        {
          "internalType": "bool",
          "name": "",
          "type": "bool"
        }
      ],
      "stateMutability": "view",
      "type": "function"
    },
    {
      "inputs": [
        {
          "internalType": "address",
          "name": "token",
          "type": "address"
        },
        {
          "internalType": "address",
          "name": "account",
          "type": "address"
        }
      ],
      "name": "isBlocklisted",
      "outputs": [
        {
          "internalType": "bool",
          "name": "",
          "type": "bool"
        }
      ],
      "stateMutability": "view",
      "type": "function"
    },
    {
      "inputs": [
        {
          "internalType": "address",
          "name": "token",
          "type": "address"
        },
        {
          "internalType": "address",
          "name": "account",
          "type": "address"
        }
      ],
      "name": "isCertificateSigner",
      "outputs": [
        {
          "internalType": "bool",
          "name": "",
          "type": "bool"
        }
      ],
      "stateMutability": "view",
      "type": "function"
    },
    {
      "inputs": [
        {
          "internalType": "address",
          "name": "token",
          "type": "address"
        },
        {
          "internalType": "address",
          "name": "account",
          "type": "address"
        }
      ],
      "name": "isPauser",
      "outputs": [
        {
          "internalType": "bool",
          "name": "",
          "type": "bool"
        }
      ],
      "stateMutability": "view",
      "type": "function"
    },
    {
      "inputs": [
        {
          "internalType": "address",
          "name": "token",
          "type": "address"
        }
      ],
      "name": "pause",
      "outputs": [],
      "stateMutability": "nonpayable",
      "type": "function"
    },
    {
      "inputs": [
        {
          "internalType": "address",
          "name": "token",
          "type": "address"
        }
      ],
      "name": "paused",
      "outputs": [
        {
          "internalType": "bool",
          "name": "",
          "type": "bool"
        }
      ],
      "stateMutability": "view",
      "type": "function"
    },
    {
      "inputs": [
        {
          "internalType": "address",
          "name": "token",
          "type": "address"
        },
        {
          "internalType": "bytes32",
          "name": "holdId",
          "type": "bytes32"
        },
        {
          "internalType": "address",
          "name": "recipient",
          "type": "address"
        },
        {
          "internalType": "address",
          "name": "notary",
          "type": "address"
        },
        {
          "internalType": "bytes32",
          "name": "partition",
          "type": "bytes32"
        },
        {
          "internalType": "uint256",
          "name": "value",
          "type": "uint256"
        },
        {
          "internalType": "uint256",
          "name": "timeToExpiration",
          "type": "uint256"
        },
        {
          "internalType": "bytes32",
          "name": "secretHash",
          "type": "bytes32"
        },
        {
          "internalType": "bytes",
          "name": "certificate",
          "type": "bytes"
        }
      ],
      "name": "preHoldFor",
      "outputs": [
        {
          "internalType": "bool",
          "name": "",
          "type": "bool"
        }
      ],
      "stateMutability": "nonpayable",
      "type": "function"
    },
    {
      "inputs": [
        {
          "internalType": "address",
          "name": "token",
          "type": "address"
        },
        {
          "internalType": "bytes32",
          "name": "holdId",
          "type": "bytes32"
        },
        {
          "internalType": "address",
          "name": "recipient",
          "type": "address"
        },
        {
          "internalType": "address",
          "name": "notary",
          "type": "address"
        },
        {
          "internalType": "bytes32",
          "name": "partition",
          "type": "bytes32"
        },
        {
          "internalType": "uint256",
          "name": "value",
          "type": "uint256"
        },
        {
          "internalType": "uint256",
          "name": "expiration",
          "type": "uint256"
        },
        {
          "internalType": "bytes32",
          "name": "secretHash",
          "type": "bytes32"
        },
        {
          "internalType": "bytes",
          "name": "certificate",
          "type": "bytes"
        }
      ],
      "name": "preHoldForWithExpirationDate",
      "outputs": [
        {
          "internalType": "bool",
          "name": "",
          "type": "bool"
        }
      ],
      "stateMutability": "nonpayable",
      "type": "function"
    },
    {
      "inputs": [
        {
          "internalType": "address",
          "name": "token",
          "type": "address"
        },
        {
          "internalType": "enum ERC1400TokensValidator.CertificateValidation",
          "name": "certificateActivated",
          "type": "uint8"
        },
        {
          "internalType": "bool",
          "name": "allowlistActivated",
          "type": "bool"
        },
        {
          "internalType": "bool",
          "name": "blocklistActivated",
          "type": "bool"
        },
        {
          "internalType": "bool",
          "name": "granularityByPartitionActivated",
          "type": "bool"
        },
        {
          "internalType": "bool",
          "name": "holdsActivated",
          "type": "bool"
        },
        {
          "internalType": "address[]",
          "name": "operators",
          "type": "address[]"
        }
      ],
      "name": "registerTokenSetup",
      "outputs": [],
      "stateMutability": "nonpayable",
      "type": "function"
    },
    {
      "inputs": [
        {
          "internalType": "address",
          "name": "token",
          "type": "address"
        },
        {
          "internalType": "bytes32",
          "name": "holdId",
          "type": "bytes32"
        }
      ],
      "name": "releaseHold",
      "outputs": [
        {
          "internalType": "bool",
          "name": "",
          "type": "bool"
        }
      ],
      "stateMutability": "nonpayable",
      "type": "function"
    },
    {
      "inputs": [
        {
          "internalType": "address",
          "name": "token",
          "type": "address"
        },
        {
          "internalType": "address",
          "name": "account",
          "type": "address"
        }
      ],
      "name": "removeAllowlistAdmin",
      "outputs": [],
      "stateMutability": "nonpayable",
      "type": "function"
    },
    {
      "inputs": [
        {
          "internalType": "address",
          "name": "token",
          "type": "address"
        },
        {
          "internalType": "address",
          "name": "account",
          "type": "address"
        }
      ],
      "name": "removeAllowlisted",
      "outputs": [],
      "stateMutability": "nonpayable",
      "type": "function"
    },
    {
      "inputs": [
        {
          "internalType": "address",
          "name": "token",
          "type": "address"
        },
        {
          "internalType": "address",
          "name": "account",
          "type": "address"
        }
      ],
      "name": "removeBlocklistAdmin",
      "outputs": [],
      "stateMutability": "nonpayable",
      "type": "function"
    },
    {
      "inputs": [
        {
          "internalType": "address",
          "name": "token",
          "type": "address"
        },
        {
          "internalType": "address",
          "name": "account",
          "type": "address"
        }
      ],
      "name": "removeBlocklisted",
      "outputs": [],
      "stateMutability": "nonpayable",
      "type": "function"
    },
    {
      "inputs": [
        {
          "internalType": "address",
          "name": "token",
          "type": "address"
        },
        {
          "internalType": "address",
          "name": "account",
          "type": "address"
        }
      ],
      "name": "removeCertificateSigner",
      "outputs": [],
      "stateMutability": "nonpayable",
      "type": "function"
    },
    {
      "inputs": [
        {
          "internalType": "address",
          "name": "token",
          "type": "address"
        },
        {
          "internalType": "address",
          "name": "account",
          "type": "address"
        }
      ],
      "name": "removePauser",
      "outputs": [],
      "stateMutability": "nonpayable",
      "type": "function"
    },
    {
      "inputs": [
        {
          "internalType": "address",
          "name": "token",
          "type": "address"
        },
        {
          "internalType": "bytes32",
          "name": "holdId",
          "type": "bytes32"
        },
        {
          "internalType": "uint256",
          "name": "timeToExpiration",
          "type": "uint256"
        },
        {
          "internalType": "bytes",
          "name": "certificate",
          "type": "bytes"
        }
      ],
      "name": "renewHold",
      "outputs": [
        {
          "internalType": "bool",
          "name": "",
          "type": "bool"
        }
      ],
      "stateMutability": "nonpayable",
      "type": "function"
    },
    {
      "inputs": [
        {
          "internalType": "address",
          "name": "token",
          "type": "address"
        },
        {
          "internalType": "bytes32",
          "name": "holdId",
          "type": "bytes32"
        },
        {
          "internalType": "uint256",
          "name": "expiration",
          "type": "uint256"
        },
        {
          "internalType": "bytes",
          "name": "certificate",
          "type": "bytes"
        }
      ],
      "name": "renewHoldWithExpirationDate",
      "outputs": [
        {
          "internalType": "bool",
          "name": "",
          "type": "bool"
        }
      ],
      "stateMutability": "nonpayable",
      "type": "function"
    },
    {
      "inputs": [
        {
          "internalType": "address",
          "name": "token",
          "type": "address"
        }
      ],
      "name": "renounceAllowlistAdmin",
      "outputs": [],
      "stateMutability": "nonpayable",
      "type": "function"
    },
    {
      "inputs": [
        {
          "internalType": "address",
          "name": "token",
          "type": "address"
        }
      ],
      "name": "renounceBlocklistAdmin",
      "outputs": [],
      "stateMutability": "nonpayable",
      "type": "function"
    },
    {
      "inputs": [
        {
          "internalType": "address",
          "name": "token",
          "type": "address"
        }
      ],
      "name": "renounceCertificateSigner",
      "outputs": [],
      "stateMutability": "nonpayable",
      "type": "function"
    },
    {
      "inputs": [
        {
          "internalType": "address",
          "name": "token",
          "type": "address"
        }
      ],
      "name": "renouncePauser",
      "outputs": [],
      "stateMutability": "nonpayable",
      "type": "function"
    },
    {
      "inputs": [
        {
          "internalType": "address",
          "name": "token",
          "type": "address"
        },
        {
          "internalType": "bytes32",
          "name": "holdId",
          "type": "bytes32"
        }
      ],
      "name": "retrieveHoldData",
      "outputs": [
        {
          "internalType": "bytes32",
          "name": "partition",
          "type": "bytes32"
        },
        {
          "internalType": "address",
          "name": "sender",
          "type": "address"
        },
        {
          "internalType": "address",
          "name": "recipient",
          "type": "address"
        },
        {
          "internalType": "address",
          "name": "notary",
          "type": "address"
        },
        {
          "internalType": "uint256",
          "name": "value",
          "type": "uint256"
        },
        {
          "internalType": "uint256",
          "name": "expiration",
          "type": "uint256"
        },
        {
          "internalType": "bytes32",
          "name": "secretHash",
          "type": "bytes32"
        },
        {
          "internalType": "bytes32",
          "name": "secret",
          "type": "bytes32"
        },
        {
          "internalType": "enum HoldStatusCode",
          "name": "status",
          "type": "uint8"
        }
      ],
      "stateMutability": "view",
      "type": "function"
    },
    {
      "inputs": [
        {
          "internalType": "address",
          "name": "token",
          "type": "address"
        }
      ],
      "name": "retrieveTokenSetup",
      "outputs": [
        {
          "internalType": "enum ERC1400TokensValidator.CertificateValidation",
          "name": "",
          "type": "uint8"
        },
        {
          "internalType": "bool",
          "name": "",
          "type": "bool"
        },
        {
          "internalType": "bool",
          "name": "",
          "type": "bool"
        },
        {
          "internalType": "bool",
          "name": "",
          "type": "bool"
        },
        {
          "internalType": "bool",
          "name": "",
          "type": "bool"
        },
        {
          "internalType": "address[]",
          "name": "",
          "type": "address[]"
        }
      ],
      "stateMutability": "view",
      "type": "function"
    },
    {
      "inputs": [
        {
          "internalType": "address",
          "name": "token",
          "type": "address"
        },
        {
          "internalType": "bytes32",
          "name": "partition",
          "type": "bytes32"
        },
        {
          "internalType": "uint256",
          "name": "granularity",
          "type": "uint256"
        }
      ],
      "name": "setGranularityByPartition",
      "outputs": [],
      "stateMutability": "nonpayable",
      "type": "function"
    },
    {
      "inputs": [
        {
          "internalType": "address",
          "name": "token",
          "type": "address"
        },
        {
          "internalType": "address",
          "name": "account",
          "type": "address"
        }
      ],
      "name": "spendableBalanceOf",
      "outputs": [
        {
          "internalType": "uint256",
          "name": "",
          "type": "uint256"
        }
      ],
      "stateMutability": "view",
      "type": "function"
    },
    {
      "inputs": [
        {
          "internalType": "address",
          "name": "token",
          "type": "address"
        },
        {
          "internalType": "bytes32",
          "name": "partition",
          "type": "bytes32"
        },
        {
          "internalType": "address",
          "name": "account",
          "type": "address"
        }
      ],
      "name": "spendableBalanceOfByPartition",
      "outputs": [
        {
          "internalType": "uint256",
          "name": "",
          "type": "uint256"
        }
      ],
      "stateMutability": "view",
      "type": "function"
    },
    {
      "inputs": [
        {
          "internalType": "bytes",
          "name": "payload",
          "type": "bytes"
        },
        {
          "internalType": "bytes32",
          "name": "partition",
          "type": "bytes32"
        },
        {
          "internalType": "address",
          "name": "operator",
          "type": "address"
        },
        {
          "internalType": "address",
          "name": "from",
          "type": "address"
        },
        {
          "internalType": "address",
          "name": "to",
          "type": "address"
        },
        {
          "internalType": "uint256",
          "name": "value",
          "type": "uint256"
        },
        {
          "internalType": "bytes",
          "name": "data",
          "type": "bytes"
        },
        {
          "internalType": "bytes",
          "name": "operatorData",
          "type": "bytes"
        }
      ],
      "name": "tokensToValidate",
      "outputs": [],
      "stateMutability": "nonpayable",
      "type": "function"
    },
    {
      "inputs": [
        {
          "internalType": "address",
          "name": "token",
          "type": "address"
        }
      ],
      "name": "totalSupplyOnHold",
      "outputs": [
        {
          "internalType": "uint256",
          "name": "",
          "type": "uint256"
        }
      ],
      "stateMutability": "view",
      "type": "function"
    },
    {
      "inputs": [
        {
          "internalType": "address",
          "name": "token",
          "type": "address"
        },
        {
          "internalType": "bytes32",
          "name": "partition",
          "type": "bytes32"
        }
      ],
      "name": "totalSupplyOnHoldByPartition",
      "outputs": [
        {
          "internalType": "uint256",
          "name": "",
          "type": "uint256"
        }
      ],
      "stateMutability": "view",
      "type": "function"
    },
    {
      "inputs": [
        {
          "internalType": "address",
          "name": "token",
          "type": "address"
        }
      ],
      "name": "unpause",
      "outputs": [],
      "stateMutability": "nonpayable",
      "type": "function"
    },
    {
      "inputs": [
        {
          "internalType": "address",
          "name": "token",
          "type": "address"
        },
        {
          "internalType": "address",
          "name": "sender",
          "type": "address"
        }
      ],
      "name": "usedCertificateNonce",
      "outputs": [
        {
          "internalType": "uint256",
          "name": "",
          "type": "uint256"
        }
      ],
      "stateMutability": "view",
      "type": "function"
    },
    {
      "inputs": [
        {
          "internalType": "address",
          "name": "token",
          "type": "address"
        },
        {
          "internalType": "bytes32",
          "name": "salt",
          "type": "bytes32"
        }
      ],
      "name": "usedCertificateSalt",
      "outputs": [
        {
          "internalType": "bool",
          "name": "",
          "type": "bool"
        }
      ],
      "stateMutability": "view",
      "type": "function"
    },
    {
      "inputs": [
        {
          "internalType": "address",
          "name": "token",
          "type": "address"
        }
      ],
      "name": "renounceMinter",
      "outputs": [],
      "stateMutability": "nonpayable",
      "type": "function"
    }
  ],
  "bytecode": "0x60806040523480156200001157600080fd5b506200005d6040518060400160405280601681526020017f45524331343030546f6b656e7356616c696461746f72000000000000000000008152506200006360201b620024101760201c565b620000f1565b600160076000836040516020016200007c9190620000b3565b60408051808303601f19018152918152815160209283012083529082019290925201600020805460ff191691151591909117905550565b6000825160005b81811015620000d65760208186018101518583015201620000ba565b81811115620000e6576000828501525b509190910192915050565b6156d380620001016000396000f3fe608060405234801561001057600080fd5b50600436106102675760003560e01c80630d21cdd81461026c578063118fa5db1461028157806312da4de6146102945780631529371f146103295780631db9c180146103605780632174e43514610373578063249cb3fa146103965780632744cc27146103a9578063279f00dd146103e25780632c55b05f146103f55780632e48152c146104085780632fd333981461041b5780633bddaf8f1461042e57806341eb24bb146104415780634261699f1461045457806342be578714610467578063450999a01461047a578063520faa76146104b0578063530b8edd146104c357806354c6f08c146104d657806357b001f9146104e95780635b4b2fd3146104fc5780635f112c681461050f57806361aed0641461052257806361c2e2811461055b57806362e93ffa1461056e578063685e2519146105815780636eb6ad8f14610594578063732c916b146105a757806373e7b160146105ba57806376a67a51146105cd57806389d3a639146105e05780639672d64b146105f357806398a53ef5146106065780639bd483ec146106195780639e59ceba1461062c578063a28e7c021461063f578063a4aa023f14610652578063a54cdf6a14610665578063accf61751461069b578063b090bee7146106c0578063c1c60fe2146106d3578063c428b202146106e6578063c69664bb146106f9578063d47ac02a1461070c578063dfe15da01461071f578063e323e67114610732578063e34a11ec14610745578063e81ea54114610786578063eb5314bd14610799578063ebf42f77146107ac578063ed2f9095146107bf578063fa061ca0146107d2575b600080fd5b61027f61027a366004614c23565b6107e5565b005b61027f61028f366004614f4f565b6107f2565b61030b6102a2366004614c96565b6001600160a01b039182166000908152601260209081526040808320938352929052208054600182015460028301546003840154600485015460058601546006870154600788015460089098015496999589169894851697939094169591949093929160ff1690565b60405161032099989796959493929190615256565b60405180910390f35b610352610337366004614c23565b6001600160a01b031660009081526016602052604090205490565b604051908152602001610320565b61035261036e366004614c5d565b6109bb565b610386610381366004614d04565b6109e8565b6040519015158152602001610320565b6103526103a436600461506d565b610a70565b6103526103b7366004614c5d565b6001600160a01b039182166000908152600d6020908152604080832093909416825291909152205490565b6103866103f0366004614dc7565b610acf565b61027f610403366004614c5d565b610af6565b610386610416366004614c23565b610bf8565b610386610429366004614c5d565b610c16565b61027f61043c366004614c23565b610c3f565b61027f61044f366004614c23565b610c49565b61027f610462366004614c5d565b610c53565b610386610475366004614c5d565b610d50565b610352610488366004614c96565b6001600160a01b03919091166000908152601560209081526040808320938352929052205490565b61027f6104be366004615092565b610d72565b6103866104d1366004614dc7565b610fbe565b61027f6104e4366004614eab565b611012565b61027f6104f7366004614c23565b611027565b61035261050a366004614c5d565b61119e565b61027f61051d366004614c23565b6111aa565b610386610530366004614c96565b6001600160a01b03919091166000908152600e60209081526040808320938352929052205460ff1690565b610386610569366004614c5d565b6112e4565b61027f61057c366004614e76565b611306565b61027f61058f366004614c5d565b611410565b61027f6105a2366004614eab565b61150d565b6103526105b5366004614cc2565b61151c565b6103866105c8366004614dc7565b611531565b61027f6105db366004614c23565b611546565b6103866105ee366004614dc7565b6116b6565b610386610601366004614d04565b611709565b610386610614366004615174565b611782565b61027f610627366004614c5d565b61193e565b61038661063a366004614c5d565b611a3b565b61038661064d366004614c5d565b611a5d565b610386610660366004614c5d565b611a7f565b610352610673366004614c96565b6001600160a01b03919091166000908152601160209081526040808320938352929052205490565b6106ae6106a9366004614c23565b611aa1565b604051610320969594939291906152f4565b6103866106ce366004614ee6565b611b6f565b6103866106e1366004614c96565b611bc6565b61027f6106f4366004614c5d565b611bd2565b61027f610707366004614c5d565b611ccf565b61038661071a366004614ee6565b611dcc565b61027f61072d366004614c5d565b611e18565b61027f610740366004614c23565b611f15565b610352610753366004614cc2565b6001600160a01b039283166000908152601460209081526040808320939095168252918252838120928152919052205490565b61027f610794366004614c5d565b611f1f565b61027f6107a7366004614c5d565b61201c565b61027f6107ba366004614c5d565b612119565b61027f6107cd366004614c5d565b612216565b61027f6107e0366004614c5d565b612313565b6107ef813361245e565b50565b87336001600160a01b038216148061088b5750806001600160a01b0316638da5cb5b6040518163ffffffff1660e01b815260040160206040518083038186803b15801561083e57600080fd5b505afa158015610852573d6000803e3d6000fd5b505050506040513d601f19601f820116820180604052508101906108769190614c40565b6001600160a01b0316336001600160a01b0316145b806108b957506001600160a01b038116600090815260096020908152604080832033845290915290205460ff165b6108de5760405162461bcd60e51b81526004016108d5906154bf565b60405180910390fd5b6001600160a01b0389166000908152600c60205260409020805489919060ff1916600183600281111561091357610913615638565b02179055506001600160a01b0389166000908152600a60209081526040808320805460ff199081168c151517909155600b8352818420805482168b1515179055600f8352818420805482168a15151790556010835292819020805490931687151517909255815184820280820183019093528481526109b0928c92879187918291908501908490808284376000920191909152506124c492505050565b505050505050505050565b6001600160a01b038083166000908152601360209081526040808320938516835292905220545b92915050565b60006001600160a01b038a16610a105760405162461bcd60e51b81526004016108d5906153cb565b610a608c8c8c8c8c8c8c610a238d61260f565b8c8c8c8080601f01602080910402602001604051908101604052809392919081815260200183838082843760009201919091525061262292505050565b9c9b505050505050505050505050565b60008281526007602052604081205460ff1615610ac75760405173455243313832305f4143434550545f4d4147494360601b60208201526034016040516020818303038152906040528051906020012090506109e2565b5060006109e2565b6000610ae58b8b60008c8c8c8c610a238d61260f565b90505b9a9950505050505050505050565b81336001600160a01b0382161480610b8f5750806001600160a01b0316638da5cb5b6040518163ffffffff1660e01b815260040160206040518083038186803b158015610b4257600080fd5b505afa158015610b56573d6000803e3d6000fd5b505050506040513d601f19601f82011682018060405250810190610b7a9190614c40565b6001600160a01b0316336001600160a01b0316145b80610bbd57506001600160a01b038116600090815260096020908152604080832033845290915290205460ff165b80610bcd5750610bcd8133611a5d565b610be95760405162461bcd60e51b81526004016108d590615411565b610bf383836129c6565b505050565b6001600160a01b031660009081526001602052604090205460ff1690565b6001600160a01b0382166000908152602081905260408120610c389083612a2c565b9392505050565b6107ef8133612aaf565b6107ef8133612b15565b81336001600160a01b0382161480610cec5750806001600160a01b0316638da5cb5b6040518163ffffffff1660e01b815260040160206040518083038186803b158015610c9f57600080fd5b505afa158015610cb3573d6000803e3d6000fd5b505050506040513d601f19601f82011682018060405250810190610cd79190614c40565b6001600160a01b0316336001600160a01b0316145b80610d1a57506001600160a01b038116600090815260096020908152604080832033845290915290205460ff165b80610d2a5750610d2a8133610d50565b610d465760405162461bcd60e51b81526004016108d59061548a565b610bf38383612b7b565b6001600160a01b0382166000908152600360205260408120610c389083612a2c565b6000806000610e11338f8f8080601f016020809104026020016040519081016040528093929190818152602001838380828437600081840152601f19601f820116905080830192505050505050508d8888905060001415610dd4578a8a610dd7565b88885b8080601f016020809104026020016040519081016040528093929190818152602001838380828437600092019190915250612be192505050565b92509250925082610e345760405162461bcd60e51b81526004016108d59061537f565b610e4033838d84612d07565b505050610e87338c8c8080601f0160208091040260200160405190810160405280939291908181526020018383808284376000920191909152508c92508b9150612db29050565b610ea35760405162461bcd60e51b81526004016108d59061537f565b610eac33610bf8565b15610ec95760405162461bcd60e51b81526004016108d59061537f565b610ed4338a87612ef1565b610f055760405162461bcd60e51b8152602060048201526002602482015261035360f41b60448201526064016108d5565b610f13338a8a8a8a8a612f86565b610f445760405162461bcd60e51b8152602060048201526002602482015261353560f01b60448201526064016108d5565b6000610f54338b8b8b8b8b6130da565b3360009081526010602052604090205490925060ff1690508015610f7757508015155b15610fb057336000818152601260209081526040808320858452909152812060048101549092610fae929091849186918c91613152565b505b505050505050505050505050565b6000610fc9856131dc565b610ae58b8b60008c8c8c8c8c8c8c8c8080601f01602080910402602001604051908101604052809392919081815260200183838082843760009201919091525061262292505050565b61102184843385856000613259565b50505050565b80336001600160a01b03821614806110c05750806001600160a01b0316638da5cb5b6040518163ffffffff1660e01b815260040160206040518083038186803b15801561107357600080fd5b505afa158015611087573d6000803e3d6000fd5b505050506040513d601f19601f820116820180604052508101906110ab9190614c40565b6001600160a01b0316336001600160a01b0316145b806110ee57506001600160a01b038116600090815260096020908152604080832033845290915290205460ff165b806110fe57506110fe8133610c16565b61111a5760405162461bcd60e51b81526004016108d59061539b565b6001600160a01b038216600090815260016020526040902054829060ff1661114157600080fd5b6001600160a01b03831660008181526001602052604090819020805460ff19169055517f3d072963433794eb417a69355df67d08bbd73d5076ef653d6863861161d60af39061119190339061522b565b60405180910390a2505050565b6000610c3883836134a9565b80336001600160a01b03821614806112435750806001600160a01b0316638da5cb5b6040518163ffffffff1660e01b815260040160206040518083038186803b1580156111f657600080fd5b505afa15801561120a573d6000803e3d6000fd5b505050506040513d601f19601f8201168201806040525081019061122e9190614c40565b6001600160a01b0316336001600160a01b0316145b8061127157506001600160a01b038116600090815260096020908152604080832033845290915290205460ff165b61128d5760405162461bcd60e51b81526004016108d5906154bf565b816001600160a01b031663986502756040518163ffffffff1660e01b8152600401600060405180830381600087803b1580156112c857600080fd5b505af11580156112dc573d6000803e3d6000fd5b505050505050565b6001600160a01b0382166000908152600460205260408120610c389083612a2c565b82336001600160a01b038216148061139f5750806001600160a01b0316638da5cb5b6040518163ffffffff1660e01b815260040160206040518083038186803b15801561135257600080fd5b505afa158015611366573d6000803e3d6000fd5b505050506040513d601f19601f8201168201806040525081019061138a9190614c40565b6001600160a01b0316336001600160a01b0316145b806113cd57506001600160a01b038116600090815260096020908152604080832033845290915290205460ff165b6113e95760405162461bcd60e51b81526004016108d5906154bf565b506001600160a01b0390921660009081526011602090815260408083209383529290522055565b81336001600160a01b03821614806114a95750806001600160a01b0316638da5cb5b6040518163ffffffff1660e01b815260040160206040518083038186803b15801561145c57600080fd5b505afa158015611470573d6000803e3d6000fd5b505050506040513d601f19601f820116820180604052508101906114949190614c40565b6001600160a01b0316336001600160a01b0316145b806114d757506001600160a01b038116600090815260096020908152604080832033845290915290205460ff165b806114e757506114e78133610d50565b6115035760405162461bcd60e51b81526004016108d59061548a565b610bf3838361354f565b61102184843385856001613259565b60006115298484846135b5565b949350505050565b6000610ae58b8b338c8c8c8c610a238d61260f565b80336001600160a01b03821614806115df5750806001600160a01b0316638da5cb5b6040518163ffffffff1660e01b815260040160206040518083038186803b15801561159257600080fd5b505afa1580156115a6573d6000803e3d6000fd5b505050506040513d601f19601f820116820180604052508101906115ca9190614c40565b6001600160a01b0316336001600160a01b0316145b8061160d57506001600160a01b038116600090815260096020908152604080832033845290915290205460ff165b8061161d575061161d8133610c16565b6116395760405162461bcd60e51b81526004016108d59061539b565b6001600160a01b038216600090815260016020526040902054829060ff161561166157600080fd5b6001600160a01b038316600081815260016020819052604091829020805460ff19169091179055517f3dd4f37ca5eaf6c357698a52c806820426d7c9a26adb0991c3bebb09cf23352a9061119190339061522b565b60006116c1856131dc565b610ae58b8b338c8c8c8c8c8c8c8c8080601f01602080910402602001604051908101604052809392919081815260200183838082843760009201919091525061262292505050565b6000611714856131dc565b6001600160a01b038a1661173a5760405162461bcd60e51b81526004016108d5906153cb565b610a608c8c8c8c8c8c8c8c8c8c8c8080601f01602080910402602001604051908101604052809392919081815260200183838082843760009201919091525061262292505050565b60008061181d6117956020850185614c23565b6117a26020860186615500565b8080601f0160208091040260200160405190810160405280939291908181526020018383808284376000920191909152506117e7925050506080870160608801614c23565b6117f5610100880188615500565b1515905061180f5761180a60e0880188615500565b610dd7565b610dd7610100880188615500565b505090508080156118a057506118a06118396020850185614c23565b6118466020860186615500565b8080601f01602080910402602001604051908101604052809392919081815260200183838082843760009201919091525061188b9250505060a0870160808801614c23565b61189b60c0880160a08901614c23565b612db2565b90508080156118bc57506118ba6104166020850185614c23565b155b90508080156118e557506118e56118d66020850185614c23565b84604001358560c00135612ef1565b9050808015610c385750610c386118ff6020850185614c23565b60408501356119146080870160608801614c23565b61192460a0880160808901614c23565b61193460c0890160a08a01614c23565b8860c00135612f86565b81336001600160a01b03821614806119d75750806001600160a01b0316638da5cb5b6040518163ffffffff1660e01b815260040160206040518083038186803b15801561198a57600080fd5b505afa15801561199e573d6000803e3d6000fd5b505050506040513d601f19601f820116820180604052508101906119c29190614c40565b6001600160a01b0316336001600160a01b0316145b80611a0557506001600160a01b038116600090815260096020908152604080832033845290915290205460ff165b80611a155750611a158133611a5d565b611a315760405162461bcd60e51b81526004016108d590615411565b610bf38383613665565b6001600160a01b0382166000908152600260205260408120610c389083612a2c565b6001600160a01b0382166000908152600560205260408120610c389083612a2c565b6001600160a01b0382166000908152600660205260408120610c389083612a2c565b6001600160a01b0381166000908152600c6020908152604080832054600a835281842054600b845282852054600f85528386205460108652848720546008875285882080548751818a0281018a01909852808852899889988998899860609860ff928316989183169790831696918316959216939092918391830182828015611b5357602002820191906000526020600020905b81546001600160a01b03168152600190910190602001808311611b35575b5050505050905095509550955095509550955091939550919395565b6000611b7a846131dc565b611bbc86868686868080601f0160208091040260200160405190810160405280939291908181526020018383808284376000920191909152506136cb92505050565b9695505050505050565b6000610c388383613903565b81336001600160a01b0382161480611c6b5750806001600160a01b0316638da5cb5b6040518163ffffffff1660e01b815260040160206040518083038186803b158015611c1e57600080fd5b505afa158015611c32573d6000803e3d6000fd5b505050506040513d601f19601f82011682018060405250810190611c569190614c40565b6001600160a01b0316336001600160a01b0316145b80611c9957506001600160a01b038116600090815260096020908152604080832033845290915290205460ff165b80611ca95750611ca98133611a5d565b611cc55760405162461bcd60e51b81526004016108d590615411565b610bf38383613bd4565b81336001600160a01b0382161480611d685750806001600160a01b0316638da5cb5b6040518163ffffffff1660e01b815260040160206040518083038186803b158015611d1b57600080fd5b505afa158015611d2f573d6000803e3d6000fd5b505050506040513d601f19601f82011682018060405250810190611d539190614c40565b6001600160a01b0316336001600160a01b0316145b80611d9657506001600160a01b038116600090815260096020908152604080832033845290915290205460ff165b80611da65750611da68133611a3b565b611dc25760405162461bcd60e51b81526004016108d590615448565b610bf38383613c3a565b6000611bbc8686611ddc8761260f565b86868080601f0160208091040260200160405190810160405280939291908181526020018383808284376000920191909152506136cb92505050565b81336001600160a01b0382161480611eb15750806001600160a01b0316638da5cb5b6040518163ffffffff1660e01b815260040160206040518083038186803b158015611e6457600080fd5b505afa158015611e78573d6000803e3d6000fd5b505050506040513d601f19601f82011682018060405250810190611e9c9190614c40565b6001600160a01b0316336001600160a01b0316145b80611edf57506001600160a01b038116600090815260096020908152604080832033845290915290205460ff165b80611eef5750611eef8133610d50565b611f0b5760405162461bcd60e51b81526004016108d59061548a565b610bf3838361245e565b6107ef8133613ca0565b81336001600160a01b0382161480611fb85750806001600160a01b0316638da5cb5b6040518163ffffffff1660e01b815260040160206040518083038186803b158015611f6b57600080fd5b505afa158015611f7f573d6000803e3d6000fd5b505050506040513d601f19601f82011682018060405250810190611fa39190614c40565b6001600160a01b0316336001600160a01b0316145b80611fe657506001600160a01b038116600090815260096020908152604080832033845290915290205460ff165b80611ff65750611ff68133611a3b565b6120125760405162461bcd60e51b81526004016108d590615448565b610bf38383612aaf565b81336001600160a01b03821614806120b55750806001600160a01b0316638da5cb5b6040518163ffffffff1660e01b815260040160206040518083038186803b15801561206857600080fd5b505afa15801561207c573d6000803e3d6000fd5b505050506040513d601f19601f820116820180604052508101906120a09190614c40565b6001600160a01b0316336001600160a01b0316145b806120e357506001600160a01b038116600090815260096020908152604080832033845290915290205460ff165b806120f357506120f38133610c16565b61210f5760405162461bcd60e51b81526004016108d59061539b565b610bf38383613d06565b81336001600160a01b03821614806121b25750806001600160a01b0316638da5cb5b6040518163ffffffff1660e01b815260040160206040518083038186803b15801561216557600080fd5b505afa158015612179573d6000803e3d6000fd5b505050506040513d601f19601f8201168201806040525081019061219d9190614c40565b6001600160a01b0316336001600160a01b0316145b806121e057506001600160a01b038116600090815260096020908152604080832033845290915290205460ff165b806121f057506121f08133611a5d565b61220c5760405162461bcd60e51b81526004016108d590615411565b610bf38383613ca0565b81336001600160a01b03821614806122af5750806001600160a01b0316638da5cb5b6040518163ffffffff1660e01b815260040160206040518083038186803b15801561226257600080fd5b505afa158015612276573d6000803e3d6000fd5b505050506040513d601f19601f8201168201806040525081019061229a9190614c40565b6001600160a01b0316336001600160a01b0316145b806122dd57506001600160a01b038116600090815260096020908152604080832033845290915290205460ff165b806122ed57506122ed8133610c16565b6123095760405162461bcd60e51b81526004016108d59061539b565b610bf38383612b15565b81336001600160a01b03821614806123ac5750806001600160a01b0316638da5cb5b6040518163ffffffff1660e01b815260040160206040518083038186803b15801561235f57600080fd5b505afa158015612373573d6000803e3d6000fd5b505050506040513d601f19601f820116820180604052508101906123979190614c40565b6001600160a01b0316336001600160a01b0316145b806123da57506001600160a01b038116600090815260096020908152604080832033845290915290205460ff165b806123ea57506123ea8133610d50565b6124065760405162461bcd60e51b81526004016108d59061548a565b610bf38383613d6c565b60016007600083604051602001612427919061520f565b60408051808303601f19018152918152815160209283012083529082019290925201600020805460ff191691151591909117905550565b6001600160a01b03821660009081526003602052604090206124809082613dd2565b806001600160a01b0316826001600160a01b03167f84c618afa7439d9985b8c707a18637a9c6b0128399c0f5dee2ca90254d66fc3a60405160405180910390a35050565b60005b6001600160a01b038316600090815260086020526040902054811015612564576001600160a01b03831660009081526009602090815260408083206008909252822080548391908590811061251e5761251e61564e565b6000918252602080832091909101546001600160a01b031683528201929092526040019020805460ff19169115159190911790558061255c81615607565b9150506124c7565b5060005b81518110156125e5576001600160a01b03831660009081526009602052604081208351600192908590859081106125a1576125a161564e565b6020908102919091018101516001600160a01b03168252810191909152604001600020805460ff1916911515919091179055806125dd81615607565b915050612568565b506001600160a01b03821660009081526008602090815260409091208251610bf392840190614b51565b60008082156109e257610c384284613e54565b6001600160a01b03808b1660009081526012602090815260408083208d84529091528120909189166126a55760405162461bcd60e51b815260206004820152602660248201527f50617965652061646472657373206d757374206e6f74206265207a65726f206160448201526564647265737360d01b60648201526084016108d5565b856126f25760405162461bcd60e51b815260206004820152601f60248201527f56616c7565206d7573742062652067726561746572207468616e207a65726f0060448201526064016108d5565b6004810154156127415760405162461bcd60e51b815260206004820152601a6024820152795468697320686f6c64496420616c72656164792065786973747360301b60448201526064016108d5565b61274d8c338c86613e60565b6127b85760405162461bcd60e51b815260206004820152603660248201527f4120686f6c642063616e206f6e6c7920626520637265617465642077697468206044820152756164617074656420617574686f72697a6174696f6e7360501b60648201526084016108d5565b6001600160a01b038a161561285c576127d28c888c6135b5565b86111561285c5760405162461bcd60e51b815260206004820152604c60248201527f416d6f756e74206f662074686520686f6c642063616e2774206265206772656160448201527f746572207468616e20746865207370656e6461626c652062616c616e6365206f60648201526b33103a34329039b2b73232b960a11b608482015260a4016108d5565b868155600180820180546001600160a01b038d81166001600160a01b031992831681179093556002850180548e8316908416179055600385018054918d169190921617905560048301889055600583018790556006830186905560088301805460ff191690921790915515612947576128d68c828d613fa7565b60006129338d83600001548460030160009054906101000a90046001600160a01b03168560010160009054906101000a90046001600160a01b03168660020160009054906101000a90046001600160a01b031687600401546130da565b5060009081526017602052604090208c9055505b604080518881526001600160a01b038c811660208301528b811692820192909252606081018890526080810187905260a08101869052818a16918d91908f16907fe6adc59c6b5c7a2129126ae891955f416cc5837e1489b17e7fb03dd67d2ef4d19060c00160405180910390a45060019b9a5050505050505050505050565b6001600160a01b03821660009081526006602052604090206129e89082614102565b806001600160a01b0316826001600160a01b03167f4eef79dfdff8d6b9485c6a01d5caac6413488fc1036c03867dbf75558a3b3a3660405160405180910390a35050565b60006001600160a01b038216612a8f5760405162461bcd60e51b815260206004820152602260248201527f526f6c65733a206163636f756e7420697320746865207a65726f206164647265604482015261737360f01b60648201526084016108d5565b506001600160a01b03166000908152602091909152604090205460ff1690565b6001600160a01b0382166000908152600260205260409020612ad19082613dd2565b806001600160a01b0316826001600160a01b03167f795a3a12ab7aa35ee8d4681ead2986eae8de69f5491d9dccfeca0442f644db8160405160405180910390a35050565b6001600160a01b0382166000908152602081905260409020612b379082613dd2565b806001600160a01b0316826001600160a01b03167fb75903ade4a0fdb07d60c882c22c779e2e1c751883c37aecdcc92a8ec72b046e60405160405180910390a35050565b6001600160a01b0382166000908152600460205260409020612b9d9082614102565b806001600160a01b0316826001600160a01b03167ff537a4c39a5575220902fda69b79909e02d44c8a7146b1a1c3b936f86aa71e3860405160405180910390a35050565b60008080806001600160a01b0388166000908152600c602052604090205460ff166002811115612c1357612c13615638565b118015612c245750612c248661417e565b8015612c375750612c358786611a3b565b155b8015612c4c5750306001600160a01b03861614155b15612cf25760026001600160a01b0388166000908152600c602052604090205460ff166002811115612c8057612c80615638565b1415612cc357600080612c9589888a896141d2565b915091508115612cb05760019450600293509150612cfd9050565b6000600260009450945094505050612cfd565b612ccf878688876144af565b15612ce35750600191508190506000612cfd565b50600091506001905081612cfd565b506001915060009050805b9450945094915050565b6001836002811115612d1b57612d1b615638565b1415612d64576001600160a01b038085166000908152600d602090815260408083209386168352929052908120805460019290612d59908490615546565b909155506110219050565b6002836002811115612d7857612d78615638565b1415611021576001600160a01b0384166000908152600e602090815260408083208484529091529020805460ff1916600117905550505050565b6000612dbd8461417e565b1580612df357506001600160a01b0385166000908152600c602052604081205460ff166002811115612df157612df1615638565b145b15612ee6576001600160a01b0385166000908152600a602052604090205460ff1615612e71576001600160a01b03831615801590612e385750612e3685846112e4565b155b15612e4557506000611529565b6001600160a01b03821615801590612e645750612e6285836112e4565b155b15612e7157506000611529565b6001600160a01b0385166000908152600b602052604090205460ff1615612ee6576001600160a01b03831615801590612eaf5750612eaf8584611a7f565b15612ebc57506000611529565b6001600160a01b03821615801590612ed95750612ed98583611a7f565b15612ee657506000611529565b506001949350505050565b6001600160a01b0383166000908152600f602052604081205460ff1615612f7c576001600160a01b038416600090815260116020908152604080832086845290915290205415801590612f6f57506001600160a01b0384166000908152601160209081526040808320868452909152902054612f6d9083614736565b155b15612f7c57506000610c38565b5060019392505050565b6001600160a01b03861660009081526010602052604081205460ff168015612fb657506001600160a01b03841615155b156130cd57836001600160a01b0316856001600160a01b0316146130b3576000612fe48888888888886130da565b6001600160a01b038a16600090815260126020908152604080832084845290915290209092509050613017818886614755565b80156130a057506040516330e8280360e01b81526001600160a01b038a16906330e828039061304c908b908a9060040161523f565b60206040518083038186803b15801561306457600080fd5b505afa158015613078573d6000803e3d6000fd5b505050506040513d601f19601f8201168201806040525081019061309c9190615054565b8411155b156130b057600192505050611bbc565b50505b6130be8787866135b5565b8211156130cd57506000611bbc565b5060019695505050505050565b604080516001600160601b0319606098891b8116602080840191909152603483019890985294881b8516605482015292871b841660688401529390951b909116607c8201526090808201949094528151808203909401845260b001815282519282019290922060008181526017909252919020549091565b60018501546001600160a01b03161561317057613170868684614791565b60088501805460ff19166002179055600385015460048601546040516001600160a01b03928316928916917ff684696c1680054513509ee7893b2a90bda386e071a6fdf7c462c7539ff816a4916131cc918991899088906152bb565b60405180910390a3505050505050565b428111806131e8575080155b6107ef5760405162461bcd60e51b815260206004820152603c60248201527f45787069726174696f6e2064617465206d75737420626520677265617465722060448201527b7468616e20626c6f636b2074696d657374616d70206f72207a65726f60201b60648201526084016108d5565b6001600160a01b0386166000908152601260209081526040808320888452909152812090831580159061329257506132928286866148ac565b156132a657506007810183905560016132ba565b6132b1828787614755565b156132ba575060015b801561345c578280156132dc575060008583600401546132da91906155c4565b115b156132f4576132ef8883898889896148c9565b613306565b61330688838988866004015489613152565b60018201546001600160a01b031661339c57815460028301546040516367c8491960e01b815260048101929092526001600160a01b0390811660248301526044820187905260806064830152600060848301528916906367c849199060a401600060405180830381600087803b15801561337f57600080fd5b505af1158015613393573d6000803e3d6000fd5b5050505061349f565b8154600183015460028401546040516323037ba760e21b815260048101939093526001600160a01b039182166024840152811660448301526064820187905260c06084830152600060c4830181905260e060a484015260e4830152891690638c0dee9c9061010401602060405180830381600087803b15801561341e57600080fd5b505af1158015613432573d6000803e3d6000fd5b505050506040513d601f19601f820116820180604052508101906134569190615054565b5061349f565b60405162461bcd60e51b81526020600482015260186024820152771a1bdb190818d85b881b9bdd08189948195e1958dd5d195960421b60448201526064016108d5565b5050505050505050565b6001600160a01b03808316600081815260136020908152604080832094861683529390528281205492516370a0823160e01b8152909291906370a08231906134f590869060040161522b565b60206040518083038186803b15801561350d57600080fd5b505afa158015613521573d6000803e3d6000fd5b505050506040513d601f19601f820116820180604052508101906135459190615054565b610c3891906155c4565b6001600160a01b03821660009081526004602052604090206135719082613dd2565b806001600160a01b0316826001600160a01b03167f99c45157365b22d82f22eea7bc8cff76cb53628113f4b52b10f83db3b404001660405160405180910390a35050565b6001600160a01b038084166000818152601460209081526040808320948616835293815283822086835290528281205492516330e8280360e01b8152909291906330e828039061360b908790879060040161523f565b60206040518083038186803b15801561362357600080fd5b505afa158015613637573d6000803e3d6000fd5b505050506040513d601f19601f8201168201806040525081019061365b9190615054565b61152991906155c4565b6001600160a01b03821660009081526006602052604090206136879082613dd2565b806001600160a01b0316826001600160a01b03167fd3e42d12ae7dae2e960401c63b158173cc9987f9ee213374eff6471eed4062e360405160405180910390a35050565b6001600160a01b038416600090815260126020908152604080832086845290915281206001600882015460ff16600681111561370957613709615638565b148061372d57506003600882015460ff16600681111561372b5761372b615638565b145b6137ab5760405162461bcd60e51b815260206004820152604360248201527f4120686f6c642063616e206f6e6c792062652072656e6577656420696e20737460448201527f61747573204f726465726564206f72204578656375746564416e644b6570744f6064820152623832b760e91b608482015260a4016108d5565b6137b88160050154614955565b156138105760405162461bcd60e51b815260206004820152602260248201527f416e206578706972656420686f6c642063616e206e6f742062652072656e6577604482015261195960f21b60648201526084016108d5565b600181015461382c90879033906001600160a01b031686613e60565b6138975760405162461bcd60e51b815260206004820152603660248201527f4120686f6c642063616e206f6e6c792062652072656e657765642077697468206044820152756164617074656420617574686f72697a6174696f6e7360501b60648201526084016108d5565b60058101805490859055600382015460408051888152602081018490529081018790526001600160a01b03918216918916907fa0bc54a9dd12fde7c7d2647b3f98b13480b32abe8b5b2a448102d90750e4abe29060600160405180910390a35060019695505050505050565b6001600160a01b038216600090815260126020908152604080832084845290915281206001600882015460ff16600681111561394157613941615638565b148061396557506003600882015460ff16600681111561396357613963615638565b145b6139e55760405162461bcd60e51b8152602060048201526044602482018190527f4120686f6c642063616e206f6e6c792062652072656c656173656420696e2073908201527f7461747573204f726465726564206f72204578656375746564416e644b65707460648201526327b832b760e11b608482015260a4016108d5565b6139f28160050154614955565b80613a09575060038101546001600160a01b031633145b80613a20575060028101546001600160a01b031633145b613a9d5760405162461bcd60e51b815260206004820152604260248201527f41206e6f74206578706972656420686f6c642063616e206f6e6c79206265207260448201527f656c656173656420627920746865206e6f74617279206f722074686520706179606482015261656560f01b608482015260a4016108d5565b613aaa8160050154614955565b15613acb576008810180546006919060ff19166001835b0217905550613b06565b60038101546001600160a01b0316331415613af6576008810180546004919060ff1916600183613ac1565b60088101805460ff191660051790555b60018101546001600160a01b031615613b7357613b2884828360040154614791565b80546003820154600183015460028401546004850154600094613b61948a9491936001600160a01b0391821693928216929116906130da565b50600090815260176020526040812055505b600381015460088201546040516001600160a01b03928316928716917ff443be38655a05232d021221bd7a13d2901adb2a897ac88b77af9ca9c6938aa991613bc291889160ff909116906152a7565b60405180910390a35060019392505050565b6001600160a01b0382166000908152600560205260409020613bf69082614102565b806001600160a01b0316826001600160a01b03167fc52e3252244a1a2a298f7b5a9f8e964ab8737811b620a1426c0b95e3037bba9e60405160405180910390a35050565b6001600160a01b0382166000908152600260205260409020613c5c9082614102565b806001600160a01b0316826001600160a01b03167f9a01aee9f656aba8760d771cf21d803168ecc664c252c9374f4a3252481fbf3560405160405180910390a35050565b6001600160a01b0382166000908152600560205260409020613cc29082613dd2565b806001600160a01b0316826001600160a01b03167f2e4e5dc902da1dd9425aa2acf081cc51d589443784af4c3fd7d5fe60d5915cd060405160405180910390a35050565b6001600160a01b0382166000908152602081905260409020613d289082614102565b806001600160a01b0316826001600160a01b03167fe0953c403a52f9dc1fef4202a8d33975c958b727bee0d7b5b328965ddad98d8160405160405180910390a35050565b6001600160a01b0382166000908152600360205260409020613d8e9082614102565b806001600160a01b0316826001600160a01b03167f7a247cc00caf875946bd4af440d6b1776fe6bb625e25cad7626bedf5e6a1c37060405160405180910390a35050565b613ddc8282612a2c565b613e325760405162461bcd60e51b815260206004820152602160248201527f526f6c65733a206163636f756e7420646f6573206e6f74206861766520726f6c6044820152606560f81b60648201526084016108d5565b6001600160a01b0316600090815260209190915260409020805460ff19169055565b6000610c388284615546565b600080600080613eab886000368080601f0160208091040260200160405190810160405280939291908181526020018383808284376000920191909152508c92508a9150612be19050565b925092509250613ebd88838984612d07565b6001600160a01b03861615613f2357828015613f1957506001600160a01b038089166000908152600960209081526040808320938b168352929052205460ff1680613f195750856001600160a01b0316876001600160a01b0316145b9350505050611529565b828015613f1957506040516355138f0d60e11b81526001600160a01b0389169063aa271e1a90613f57908a9060040161522b565b60206040518083038186803b158015613f6f57600080fd5b505afa158015613f83573d6000803e3d6000fd5b505050506040513d601f19601f82011682018060405250810190613f199190615037565b60048201546001600160a01b038085166000908152601360209081526040808320600188015490941683529290522054613fe091613e54565b6001600160a01b03808516600081815260136020908152604080832060018901549095168352938152838220949094556004860154918152601690935291205461402991613e54565b6001600160a01b0380851660009081526016602090815260408083209490945560048601546014825284832060018801549094168352928152838220865483529052919091205461407991613e54565b6001600160a01b0380851660008181526014602090815260408083206001890154909516835293815283822087548352815283822094909455600486015491815260158452828120865482529093529120546140d491613e54565b6001600160a01b03909316600090815260156020908152604080832094548352939052919091209190915550565b61410c8282612a2c565b156141595760405162461bcd60e51b815260206004820152601f60248201527f526f6c65733a206163636f756e7420616c72656164792068617320726f6c650060448201526064016108d5565b6001600160a01b0316600090815260209190915260409020805460ff19166001179055565b60008061418a83614968565b90506001600160e01b0319811663a9059cbb60e01b14806141bb57506001600160e01b031981166323b872dd60e01b145b156141c95750600092915050565b50600192915050565b60008082516081146141e9575060009050806144a6565b6020830151604084015160a085015160001a4282101561421257600080945094505050506144a6565b601b8160ff16101561422c57614229601b8261555e565b90505b8060ff16601b148061424157508060ff16601c145b1561449b5786516000906142569060c0614a19565b6001600160401b0381111561426d5761426d615664565b6040519080825280601f01601f191660200182016040528015614297576020820181803683370190505b50905060005b88516142aa9060c0614a19565b811015614309578881815181106142c3576142c361564e565b602001015160f81c60f81b8282815181106142e0576142e061564e565b60200101906001600160f81b031916908160001a9053508061430181615607565b91505061429d565b506000898b8386886040516020016143259594939291906151c3565b604051602081830303815290604052905060008b6001600160a01b031663a8082cb06040518163ffffffff1660e01b815260040160206040518083038186803b15801561437157600080fd5b505afa158015614385573d6000803e3d6000fd5b505050506040513d601f19601f820116820180604052508101906143a99190615054565b82805190602001206040516020016143cb929190918252602082015260400190565b60405160208183030381529060405280519060200120905060008060608b0151915060808b0151905061444c8e6001858986866040516000815260200160405260405161441b94939291906152d6565b6020604051602081039080840390855afa15801561443d573d6000803e3d6000fd5b50505060206040510351611a3b565b801561447c57506001600160a01b038e166000908152600e602090815260408083208b845290915290205460ff16155b15614495576001889950995050505050505050506144a6565b50505050505b600080945094505050505b94509492505050565b600081516061146144c257506000611529565b6020820151608083015160001a428210156144e257600092505050611529565b601b8160ff1610156144fc576144f9601b8261555e565b90505b8060ff16601b148061451157508060ff16601c145b156147295784516000906145269060a0614a19565b6001600160401b0381111561453d5761453d615664565b6040519080825280601f01601f191660200182016040528015614567576020820181803683370190505b50905060005b865161457a9060a0614a19565b8110156145d9578681815181106145935761459361564e565b602001015160f81c60f81b8282815181106145b0576145b061564e565b60200101906001600160f81b031916908160001a905350806145d181615607565b91505061456d565b506001600160a01b038089166000908152600d60209081526040808320938b1683529281528282205492519192614618928b928d9287928a92016151c3565b60405160208183030381529060405290506000896001600160a01b031663a8082cb06040518163ffffffff1660e01b815260040160206040518083038186803b15801561466457600080fd5b505afa158015614678573d6000803e3d6000fd5b505050506040513d601f19601f8201168201806040525081019061469c9190615054565b82805190602001206040516020016146be929190918252602082015260400190565b604051602081830303815290604052805190602001209050600080604089015191506060890151905061470e8c6001858986866040516000815260200160405260405161441b94939291906152d6565b15614723576001975050505050505050611529565b50505050505b5060009695505050505050565b60008161474d846147478382614a25565b90614a31565b149392505050565b60038301546000906001600160a01b03848116911614801561477c575061477c8483614a3d565b1561478957506001610c38565b506000610c38565b6001600160a01b0380841660009081526013602090815260408083206001870154909416835292905220546147c69082614a19565b6001600160a01b0380851660008181526013602090815260408083206001890154909516835293815283822094909455908152601690925290205461480b9082614a19565b6001600160a01b0380851660009081526016602090815260408083209490945560148152838220600187015490931682529182528281208554825290915220546148559082614a19565b6001600160a01b038085166000818152601460209081526040808320600189015490951683529381528382208754835281528382209490945590815260158352818120855482529092529020546140d49082614a19565b60006148b88483614acd565b801561477c575061477c8484614a3d565b60018501546001600160a01b0316156148e7576148e7868684614791565b60088501805460ff1916600317905560048501546149059084614a19565b6004860181905560038601546040516001600160a01b0391821692918916917f4d230199a8973380b96ad366f3dd8665b4dc0309b3fc73f02137159ae4bd229f916131cc918991899088906152bb565b600081158015906109e257505042101590565b600060188260038151811061497f5761497f61564e565b016020015183516001600160f81b031990911690911c90601090849060029081106149ac576149ac61564e565b016020015184516001600160f81b031990911690911c90600890859060019081106149d9576149d961564e565b016020015185516001600160f81b031990911690911c908590600090614a0157614a0161564e565b01602001516001600160f81b03191617171792915050565b6000610c3882846155c4565b6000610c388284615583565b6000610c3882846155a5565b60006001600884015460ff166006811115614a5a57614a5a615638565b1480614a7e57506003600884015460ff166006811115614a7c57614a7c615638565b145b614a8a575060006109e2565b81614a97575060006109e2565b614aa48360050154614955565b15614ab1575060006109e2565b8260040154821115614ac5575060006109e2565b5060016109e2565b6000600282604051602001614ae491815260200190565b60408051601f1981840301815290829052614afe9161520f565b602060405180830381855afa158015614b1b573d6000803e3d6000fd5b5050506040513d601f19601f82011682018060405250810190614b3e9190615054565b83600601541415610ac7575060016109e2565b828054828255906000526020600020908101928215614ba6579160200282015b82811115614ba657825182546001600160a01b0319166001600160a01b03909116178255602090920191600190910190614b71565b50614bb2929150614bb6565b5090565b5b80821115614bb25760008155600101614bb7565b8035614bd68161567a565b919050565b60008083601f840112614bed57600080fd5b5081356001600160401b03811115614c0457600080fd5b602083019150836020828501011115614c1c57600080fd5b9250929050565b600060208284031215614c3557600080fd5b8135610c388161567a565b600060208284031215614c5257600080fd5b8151610c388161567a565b60008060408385031215614c7057600080fd5b8235614c7b8161567a565b91506020830135614c8b8161567a565b809150509250929050565b60008060408385031215614ca957600080fd5b8235614cb48161567a565b946020939093013593505050565b600080600060608486031215614cd757600080fd5b8335614ce28161567a565b9250602084013591506040840135614cf98161567a565b809150509250925092565b60008060008060008060008060008060006101408c8e031215614d2657600080fd5b8b35614d318161567a565b9a5060208c0135995060408c0135614d488161567a565b985060608c0135614d588161567a565b975060808c0135614d688161567a565b965060a08c0135955060c08c0135945060e08c013593506101008c013592506101208c01356001600160401b03811115614da157600080fd5b614dad8e828f01614bdb565b915080935050809150509295989b509295989b9093969950565b6000806000806000806000806000806101208b8d031215614de757600080fd5b8a35614df28161567a565b995060208b0135985060408b0135614e098161567a565b975060608b0135614e198161567a565b965060808b0135955060a08b0135945060c08b0135935060e08b013592506101008b01356001600160401b03811115614e5157600080fd5b614e5d8d828e01614bdb565b915080935050809150509295989b9194979a5092959850565b600080600060608486031215614e8b57600080fd5b8335614e968161567a565b95602085013595506040909401359392505050565b60008060008060808587031215614ec157600080fd5b8435614ecc8161567a565b966020860135965060408601359560600135945092505050565b600080600080600060808688031215614efe57600080fd5b8535614f098161567a565b9450602086013593506040860135925060608601356001600160401b03811115614f3257600080fd5b614f3e88828901614bdb565b969995985093965092949392505050565b60008060008060008060008060e0898b031215614f6b57600080fd5b8835614f768161567a565b9750602089013560038110614f8a57600080fd5b96506040890135614f9a8161568f565b95506060890135614faa8161568f565b94506080890135614fba8161568f565b935060a0890135614fca8161568f565b925060c08901356001600160401b0380821115614fe657600080fd5b818b0191508b601f830112614ffa57600080fd5b81358181111561500957600080fd5b8c60208260051b850101111561501e57600080fd5b6020830194508093505050509295985092959890939650565b60006020828403121561504957600080fd5b8151610c388161568f565b60006020828403121561506657600080fd5b5051919050565b6000806040838503121561508057600080fd5b823591506020830135614c8b8161567a565b60008060008060008060008060008060006101008c8e0312156150b457600080fd5b6001600160401b038c358110156150ca57600080fd5b6150d78e8e358f01614bdb565b909c509a5060208d013599506150ef60408e01614bcb565b98506150fd60608e01614bcb565b975061510b60808e01614bcb565b965060a08d013595508060c08e0135111561512557600080fd5b6151358e60c08f01358f01614bdb565b909550935060e08d013581101561514b57600080fd5b5061515c8d60e08e01358e01614bdb565b81935080925050509295989b509295989b9093969950565b60006020828403121561518657600080fd5b81356001600160401b0381111561519c57600080fd5b82016101208185031215610c3857600080fd5b600781106151bf576151bf615638565b9052565b6001600160601b0319606087811b8216835286901b16601482015283516000906151f48160288501602089016155db565b90910160288101939093525060488201526068019392505050565b600082516152218184602087016155db565b9190910192915050565b6001600160a01b0391909116815260200190565b9182526001600160a01b0316602082015260400190565b8981526001600160a01b0389811660208301528881166040830152871660608201526080810186905260a0810185905260c0810184905260e081018390526101208101610ae86101008301846151af565b82815260408101610c3860208301846151af565b93845260208401929092526040830152606082015260800190565b93845260ff9290921660208401526040830152606082015260800190565b600060c082016003891061530a5761530a615638565b88835260208815158185015287151560408501528615156060850152851515608085015260c060a085015281855180845260e086019150828701935060005b8181101561536e5784516001600160a01b031683529383019391830191600101615349565b50909b9a5050505050505050505050565b6020808252600290820152610d4d60f21b604082015260600190565b60208082526016908201527529b2b73232b91034b9903737ba1030903830bab9b2b960511b604082015260600190565b60208082526026908201527f50617965722061646472657373206d757374206e6f74206265207a65726f206160408201526564647265737360d01b606082015260800190565b6020808252601f908201527f53656e646572206973206e6f74206120626c6f636b6c6973742061646d696e00604082015260600190565b60208082526022908201527f53656e646572206973206e6f742061206365727469666963617465207369676e60408201526132b960f11b606082015260800190565b6020808252818101527f53656e646572206973206e6f7420616e20616c6c6f776c6973742061646d696e604082015260600190565b60208082526021908201527f53656e646572206973206e6f74206120746f6b656e20636f6e74726f6c6c65726040820152601760f91b606082015260800190565b6000808335601e1984360301811261551757600080fd5b8301803591506001600160401b0382111561553157600080fd5b602001915036819003821315614c1c57600080fd5b6000821982111561555957615559615622565b500190565b600060ff821660ff84168060ff0382111561557b5761557b615622565b019392505050565b6000826155a057634e487b7160e01b600052601260045260246000fd5b500490565b60008160001904831182151516156155bf576155bf615622565b500290565b6000828210156155d6576155d6615622565b500390565b60005b838110156155f65781810151838201526020016155de565b838111156110215750506000910152565b600060001982141561561b5761561b615622565b5060010190565b634e487b7160e01b600052601160045260246000fd5b634e487b7160e01b600052602160045260246000fd5b634e487b7160e01b600052603260045260246000fd5b634e487b7160e01b600052604160045260246000fd5b6001600160a01b03811681146107ef57600080fd5b80151581146107ef57600080fdfea2646970667358221220a38099bf05318f50d63789616b482f4da48d7abf5610bf84755572390faa656964736f6c63430008070033",
  "immutableReferences": {},
  "source": "// SPDX-License-Identifier: Apache-2.0\npragma solidity ^0.8.0;\n\nimport \"../extensions/tokenExtensions/ERC1400TokensValidator.sol\";\n\n/**\n @notice Interface to the Minterrole contract\n*/\ninterface IMinterMock {\n  function renounceMinter() external;\n}\n\ncontract ERC1400TokensValidatorMock is ERC1400TokensValidator {\n\n  function renounceMinter(address token) external onlyTokenController(token) {\n    IMinterMock(token).renounceMinter();\n  }\n\n}",
  "sourcePath": "/Users/trongcauta/Documents/repository/artatech/smartcontract/UniversalToken/contracts/mocks/ERC1400TokensValidatorMock.sol",
  "compiler": {
    "name": "solc",
    "version": "0.8.7+commit.e28d00a7.Emscripten.clang"
  },
  "schemaVersion": "3.4.2",
  "updatedAt": "2023-01-31T07:54:08.057Z",
  "devdoc": {
    "kind": "dev",
    "methods": {
      "balanceOnHold(address,address)": {
        "details": "Get balance on hold of a tokenholder."
      },
      "balanceOnHoldByPartition(address,bytes32,address)": {
        "details": "Get balance on hold of a tokenholder for a specific partition."
      },
      "canValidate((address,bytes,bytes32,address,address,address,uint256,bytes,bytes))": {
        "details": "Verify if a token transfer can be executed or not, on the validator's perspective.",
        "params": {
          "data": "The struct containing the validation information."
        },
        "returns": {
          "_0": "'true' if the token transfer can be validated, 'false' if not."
        }
      },
      "executeHold(address,bytes32,uint256,bytes32)": {
        "details": "Execute hold."
      },
      "executeHoldAndKeepOpen(address,bytes32,uint256,bytes32)": {
        "details": "Execute hold and keep open."
      },
      "granularityByPartition(address,bytes32)": {
        "details": "Get granularity for a given partition.",
        "params": {
          "partition": "Name of the partition.",
          "token": "Token address."
        },
        "returns": {
          "_0": "Granularity of the partition."
        }
      },
      "hold(address,bytes32,address,address,bytes32,uint256,uint256,bytes32,bytes)": {
        "details": "Create a new token hold."
      },
      "holdFrom(address,bytes32,address,address,address,bytes32,uint256,uint256,bytes32,bytes)": {
        "details": "Create a new token hold on behalf of the token holder."
      },
      "holdFromWithExpirationDate(address,bytes32,address,address,address,bytes32,uint256,uint256,bytes32,bytes)": {
        "details": "Create a new token hold with expiration date on behalf of the token holder."
      },
      "holdWithExpirationDate(address,bytes32,address,address,bytes32,uint256,uint256,bytes32,bytes)": {
        "details": "Create a new token hold with expiration date."
      },
      "pause(address)": {
        "details": "called by the owner to pause, triggers stopped state"
      },
      "paused(address)": {
        "returns": {
          "_0": "true if the contract is paused, false otherwise."
        }
      },
      "preHoldFor(address,bytes32,address,address,bytes32,uint256,uint256,bytes32,bytes)": {
        "details": "Create a new token pre-hold."
      },
      "preHoldForWithExpirationDate(address,bytes32,address,address,bytes32,uint256,uint256,bytes32,bytes)": {
        "details": "Create a new token pre-hold with expiration date."
      },
      "registerTokenSetup(address,uint8,bool,bool,bool,bool,address[])": {
        "details": "Register token setup."
      },
      "releaseHold(address,bytes32)": {
        "details": "Release token hold."
      },
      "renewHold(address,bytes32,uint256,bytes)": {
        "details": "Renew hold."
      },
      "renewHoldWithExpirationDate(address,bytes32,uint256,bytes)": {
        "details": "Renew hold with expiration time."
      },
      "retrieveHoldData(address,bytes32)": {
        "details": "Retrieve hold data."
      },
      "retrieveTokenSetup(address)": {
        "details": "Get the list of token controllers for a given token.",
        "returns": {
          "_0": "Setup of a given token."
        }
      },
      "setGranularityByPartition(address,bytes32,uint256)": {
        "details": "Set partition granularity"
      },
      "spendableBalanceOf(address,address)": {
        "details": "Get spendable balance of a tokenholder."
      },
      "spendableBalanceOfByPartition(address,bytes32,address)": {
        "details": "Get spendable balance of a tokenholder for a specific partition."
      },
      "tokensToValidate(bytes,bytes32,address,address,address,uint256,bytes,bytes)": {
        "details": "Function called by the token contract before executing a transfer.",
        "params": {
          "data": "Extra information.",
          "from": "Token holder.",
          "operator": "Address which triggered the balance decrease (through transfer or redemption).",
          "operatorData": "Extra information, attached by the operator (if any).",
          "partition": "Name of the partition (left empty for ERC20 transfer).",
          "payload": "Payload of the initial transaction.",
          "to": "Token recipient for a transfer and 0x for a redemption.",
          "value": "Number of tokens the token holder balance is decreased by."
        }
      },
      "totalSupplyOnHold(address)": {
        "details": "Total supply on hold."
      },
      "totalSupplyOnHoldByPartition(address,bytes32)": {
        "details": "Total supply on hold for a specific partition."
      },
      "unpause(address)": {
        "details": "called by the owner to unpause, returns to normal state"
      },
      "usedCertificateNonce(address,address)": {
        "details": "Get state of certificate (used or not).",
        "params": {
          "sender": "Address whom to check the counter of.",
          "token": "Token address."
        },
        "returns": {
          "_0": "uint256 Number of transaction already sent for this token contract."
        }
      },
      "usedCertificateSalt(address,bytes32)": {
        "details": "Get state of certificate (used or not).",
        "params": {
          "salt": "First 32 bytes of certificate whose validity is being checked.",
          "token": "Token address."
        },
        "returns": {
          "_0": "bool 'true' if certificate is already used, 'false' if not."
        }
      }
    },
    "version": 1
  },
  "userdoc": {
    "kind": "user",
    "methods": {},
    "version": 1
  }
}