{
  "contractName": "ERC1400HoldableCertificateToken",
  "abi": [
    {
      "inputs": [
        {
          "internalType": "string",
          "name": "name",
          "type": "string"
        },
        {
          "internalType": "string",
          "name": "symbol",
          "type": "string"
        },
        {
          "internalType": "uint256",
          "name": "granularity",
          "type": "uint256"
        },
        {
          "internalType": "address[]",
          "name": "controllers",
          "type": "address[]"
        },
        {
          "internalType": "bytes32[]",
          "name": "defaultPartitions",
          "type": "bytes32[]"
        },
        {
          "internalType": "address",
          "name": "extension",
          "type": "address"
        },
        {
          "internalType": "address",
          "name": "newOwner",
          "type": "address"
        },
        {
          "internalType": "address",
          "name": "certificateSigner",
          "type": "address"
        },
        {
          "internalType": "enum IExtensionTypes.CertificateValidation",
          "name": "certificateActivated",
          "type": "uint8"
        }
      ],
      "stateMutability": "nonpayable",
      "type": "constructor"
    },
    {
      "anonymous": false,
      "inputs": [
        {
          "indexed": true,
          "internalType": "address",
          "name": "owner",
          "type": "address"
        },
        {
          "indexed": true,
          "internalType": "address",
          "name": "spender",
          "type": "address"
        },
        {
          "indexed": false,
          "internalType": "uint256",
          "name": "value",
          "type": "uint256"
        }
      ],
      "name": "Approval",
      "type": "event"
    },
    {
      "anonymous": false,
      "inputs": [
        {
          "indexed": true,
          "internalType": "bytes32",
          "name": "partition",
          "type": "bytes32"
        },
        {
          "indexed": true,
          "internalType": "address",
          "name": "owner",
          "type": "address"
        },
        {
          "indexed": true,
          "internalType": "address",
          "name": "spender",
          "type": "address"
        },
        {
          "indexed": false,
          "internalType": "uint256",
          "name": "value",
          "type": "uint256"
        }
      ],
      "name": "ApprovalByPartition",
      "type": "event"
    },
    {
      "anonymous": false,
      "inputs": [
        {
          "indexed": true,
          "internalType": "address",
          "name": "operator",
          "type": "address"
        },
        {
          "indexed": true,
          "internalType": "address",
          "name": "tokenHolder",
          "type": "address"
        }
      ],
      "name": "AuthorizedOperator",
      "type": "event"
    },
    {
      "anonymous": false,
      "inputs": [
        {
          "indexed": true,
          "internalType": "bytes32",
          "name": "partition",
          "type": "bytes32"
        },
        {
          "indexed": true,
          "internalType": "address",
          "name": "operator",
          "type": "address"
        },
        {
          "indexed": true,
          "internalType": "address",
          "name": "tokenHolder",
          "type": "address"
        }
      ],
      "name": "AuthorizedOperatorByPartition",
      "type": "event"
    },
    {
      "anonymous": false,
      "inputs": [
        {
          "indexed": true,
          "internalType": "bytes32",
          "name": "fromPartition",
          "type": "bytes32"
        },
        {
          "indexed": true,
          "internalType": "bytes32",
          "name": "toPartition",
          "type": "bytes32"
        },
        {
          "indexed": false,
          "internalType": "uint256",
          "name": "value",
          "type": "uint256"
        }
      ],
      "name": "ChangedPartition",
      "type": "event"
    },
    {
      "anonymous": false,
      "inputs": [
        {
          "indexed": true,
          "internalType": "bytes32",
          "name": "name",
          "type": "bytes32"
        },
        {
          "indexed": false,
          "internalType": "string",
          "name": "uri",
          "type": "string"
        },
        {
          "indexed": false,
          "internalType": "bytes32",
          "name": "documentHash",
          "type": "bytes32"
        }
      ],
      "name": "DocumentRemoved",
      "type": "event"
    },
    {
      "anonymous": false,
      "inputs": [
        {
          "indexed": true,
          "internalType": "bytes32",
          "name": "name",
          "type": "bytes32"
        },
        {
          "indexed": false,
          "internalType": "string",
          "name": "uri",
          "type": "string"
        },
        {
          "indexed": false,
          "internalType": "bytes32",
          "name": "documentHash",
          "type": "bytes32"
        }
      ],
      "name": "DocumentUpdated",
      "type": "event"
    },
    {
      "anonymous": false,
      "inputs": [
        {
          "indexed": true,
          "internalType": "address",
          "name": "operator",
          "type": "address"
        },
        {
          "indexed": true,
          "internalType": "address",
          "name": "to",
          "type": "address"
        },
        {
          "indexed": false,
          "internalType": "uint256",
          "name": "value",
          "type": "uint256"
        },
        {
          "indexed": false,
          "internalType": "bytes",
          "name": "data",
          "type": "bytes"
        }
      ],
      "name": "Issued",
      "type": "event"
    },
    {
      "anonymous": false,
      "inputs": [
        {
          "indexed": true,
          "internalType": "bytes32",
          "name": "partition",
          "type": "bytes32"
        },
        {
          "indexed": true,
          "internalType": "address",
          "name": "operator",
          "type": "address"
        },
        {
          "indexed": true,
          "internalType": "address",
          "name": "to",
          "type": "address"
        },
        {
          "indexed": false,
          "internalType": "uint256",
          "name": "value",
          "type": "uint256"
        },
        {
          "indexed": false,
          "internalType": "bytes",
          "name": "data",
          "type": "bytes"
        },
        {
          "indexed": false,
          "internalType": "bytes",
          "name": "operatorData",
          "type": "bytes"
        }
      ],
      "name": "IssuedByPartition",
      "type": "event"
    },
    {
      "anonymous": false,
      "inputs": [
        {
          "indexed": true,
          "internalType": "address",
          "name": "account",
          "type": "address"
        }
      ],
      "name": "MinterAdded",
      "type": "event"
    },
    {
      "anonymous": false,
      "inputs": [
        {
          "indexed": true,
          "internalType": "address",
          "name": "account",
          "type": "address"
        }
      ],
      "name": "MinterRemoved",
      "type": "event"
    },
    {
      "anonymous": false,
      "inputs": [
        {
          "indexed": true,
          "internalType": "address",
          "name": "previousOwner",
          "type": "address"
        },
        {
          "indexed": true,
          "internalType": "address",
          "name": "newOwner",
          "type": "address"
        }
      ],
      "name": "OwnershipTransferred",
      "type": "event"
    },
    {
      "anonymous": false,
      "inputs": [
        {
          "indexed": true,
          "internalType": "address",
          "name": "operator",
          "type": "address"
        },
        {
          "indexed": true,
          "internalType": "address",
          "name": "from",
          "type": "address"
        },
        {
          "indexed": false,
          "internalType": "uint256",
          "name": "value",
          "type": "uint256"
        },
        {
          "indexed": false,
          "internalType": "bytes",
          "name": "data",
          "type": "bytes"
        }
      ],
      "name": "Redeemed",
      "type": "event"
    },
    {
      "anonymous": false,
      "inputs": [
        {
          "indexed": true,
          "internalType": "bytes32",
          "name": "partition",
          "type": "bytes32"
        },
        {
          "indexed": true,
          "internalType": "address",
          "name": "operator",
          "type": "address"
        },
        {
          "indexed": true,
          "internalType": "address",
          "name": "from",
          "type": "address"
        },
        {
          "indexed": false,
          "internalType": "uint256",
          "name": "value",
          "type": "uint256"
        },
        {
          "indexed": false,
          "internalType": "bytes",
          "name": "operatorData",
          "type": "bytes"
        }
      ],
      "name": "RedeemedByPartition",
      "type": "event"
    },
    {
      "anonymous": false,
      "inputs": [
        {
          "indexed": true,
          "internalType": "address",
          "name": "operator",
          "type": "address"
        },
        {
          "indexed": true,
          "internalType": "address",
          "name": "tokenHolder",
          "type": "address"
        }
      ],
      "name": "RevokedOperator",
      "type": "event"
    },
    {
      "anonymous": false,
      "inputs": [
        {
          "indexed": true,
          "internalType": "bytes32",
          "name": "partition",
          "type": "bytes32"
        },
        {
          "indexed": true,
          "internalType": "address",
          "name": "operator",
          "type": "address"
        },
        {
          "indexed": true,
          "internalType": "address",
          "name": "tokenHolder",
          "type": "address"
        }
      ],
      "name": "RevokedOperatorByPartition",
      "type": "event"
    },
    {
      "anonymous": false,
      "inputs": [
        {
          "indexed": true,
          "internalType": "address",
          "name": "from",
          "type": "address"
        },
        {
          "indexed": true,
          "internalType": "address",
          "name": "to",
          "type": "address"
        },
        {
          "indexed": false,
          "internalType": "uint256",
          "name": "value",
          "type": "uint256"
        }
      ],
      "name": "Transfer",
      "type": "event"
    },
    {
      "anonymous": false,
      "inputs": [
        {
          "indexed": true,
          "internalType": "bytes32",
          "name": "fromPartition",
          "type": "bytes32"
        },
        {
          "indexed": false,
          "internalType": "address",
          "name": "operator",
          "type": "address"
        },
        {
          "indexed": true,
          "internalType": "address",
          "name": "from",
          "type": "address"
        },
        {
          "indexed": true,
          "internalType": "address",
          "name": "to",
          "type": "address"
        },
        {
          "indexed": false,
          "internalType": "uint256",
          "name": "value",
          "type": "uint256"
        },
        {
          "indexed": false,
          "internalType": "bytes",
          "name": "data",
          "type": "bytes"
        },
        {
          "indexed": false,
          "internalType": "bytes",
          "name": "operatorData",
          "type": "bytes"
        }
      ],
      "name": "TransferByPartition",
      "type": "event"
    },
    {
      "inputs": [
        {
          "internalType": "address",
          "name": "account",
          "type": "address"
        }
      ],
      "name": "addMinter",
      "outputs": [],
      "stateMutability": "nonpayable",
      "type": "function"
    },
    {
      "inputs": [
        {
          "internalType": "address",
          "name": "owner",
          "type": "address"
        },
        {
          "internalType": "address",
          "name": "spender",
          "type": "address"
        }
      ],
      "name": "allowance",
      "outputs": [
        {
          "internalType": "uint256",
          "name": "",
          "type": "uint256"
        }
      ],
      "stateMutability": "view",
      "type": "function"
    },
    {
      "inputs": [
        {
          "internalType": "bytes32",
          "name": "partition",
          "type": "bytes32"
        },
        {
          "internalType": "address",
          "name": "owner",
          "type": "address"
        },
        {
          "internalType": "address",
          "name": "spender",
          "type": "address"
        }
      ],
      "name": "allowanceByPartition",
      "outputs": [
        {
          "internalType": "uint256",
          "name": "",
          "type": "uint256"
        }
      ],
      "stateMutability": "view",
      "type": "function"
    },
    {
      "inputs": [
        {
          "internalType": "address",
          "name": "spender",
          "type": "address"
        },
        {
          "internalType": "uint256",
          "name": "value",
          "type": "uint256"
        }
      ],
      "name": "approve",
      "outputs": [
        {
          "internalType": "bool",
          "name": "",
          "type": "bool"
        }
      ],
      "stateMutability": "nonpayable",
      "type": "function"
    },
    {
      "inputs": [
        {
          "internalType": "bytes32",
          "name": "partition",
          "type": "bytes32"
        },
        {
          "internalType": "address",
          "name": "spender",
          "type": "address"
        },
        {
          "internalType": "uint256",
          "name": "value",
          "type": "uint256"
        }
      ],
      "name": "approveByPartition",
      "outputs": [
        {
          "internalType": "bool",
          "name": "",
          "type": "bool"
        }
      ],
      "stateMutability": "nonpayable",
      "type": "function"
    },
    {
      "inputs": [
        {
          "internalType": "address",
          "name": "operator",
          "type": "address"
        }
      ],
      "name": "authorizeOperator",
      "outputs": [],
      "stateMutability": "nonpayable",
      "type": "function"
    },
    {
      "inputs": [
        {
          "internalType": "bytes32",
          "name": "partition",
          "type": "bytes32"
        },
        {
          "internalType": "address",
          "name": "operator",
          "type": "address"
        }
      ],
      "name": "authorizeOperatorByPartition",
      "outputs": [],
      "stateMutability": "nonpayable",
      "type": "function"
    },
    {
      "inputs": [
        {
          "internalType": "address",
          "name": "tokenHolder",
          "type": "address"
        }
      ],
      "name": "balanceOf",
      "outputs": [
        {
          "internalType": "uint256",
          "name": "",
          "type": "uint256"
        }
      ],
      "stateMutability": "view",
      "type": "function"
    },
    {
      "inputs": [
        {
          "internalType": "bytes32",
          "name": "partition",
          "type": "bytes32"
        },
        {
          "internalType": "address",
          "name": "tokenHolder",
          "type": "address"
        }
      ],
      "name": "balanceOfByPartition",
      "outputs": [
        {
          "internalType": "uint256",
          "name": "",
          "type": "uint256"
        }
      ],
      "stateMutability": "view",
      "type": "function"
    },
    {
      "inputs": [
        {
          "internalType": "bytes32",
          "name": "interfaceHash",
          "type": "bytes32"
        },
        {
          "internalType": "address",
          "name": "",
          "type": "address"
        }
      ],
      "name": "canImplementInterfaceForAddress",
      "outputs": [
        {
          "internalType": "bytes32",
          "name": "",
          "type": "bytes32"
        }
      ],
      "stateMutability": "view",
      "type": "function"
    },
    {
      "inputs": [],
      "name": "controllers",
      "outputs": [
        {
          "internalType": "address[]",
          "name": "",
          "type": "address[]"
        }
      ],
      "stateMutability": "view",
      "type": "function"
    },
    {
      "inputs": [
        {
          "internalType": "bytes32",
          "name": "partition",
          "type": "bytes32"
        }
      ],
      "name": "controllersByPartition",
      "outputs": [
        {
          "internalType": "address[]",
          "name": "",
          "type": "address[]"
        }
      ],
      "stateMutability": "view",
      "type": "function"
    },
    {
      "inputs": [],
      "name": "decimals",
      "outputs": [
        {
          "internalType": "uint8",
          "name": "",
          "type": "uint8"
        }
      ],
      "stateMutability": "pure",
      "type": "function"
    },
    {
      "inputs": [],
      "name": "domainName",
      "outputs": [
        {
          "internalType": "string",
          "name": "",
          "type": "string"
        }
      ],
      "stateMutability": "view",
      "type": "function"
    },
    {
      "inputs": [],
      "name": "domainSeparator",
      "outputs": [
        {
          "internalType": "bytes32",
          "name": "",
          "type": "bytes32"
        }
      ],
      "stateMutability": "nonpayable",
      "type": "function"
    },
    {
      "inputs": [],
      "name": "domainVersion",
      "outputs": [
        {
          "internalType": "string",
          "name": "",
          "type": "string"
        }
      ],
      "stateMutability": "pure",
      "type": "function"
    },
    {
      "inputs": [],
      "name": "generateDomainSeparator",
      "outputs": [
        {
          "internalType": "bytes32",
          "name": "",
          "type": "bytes32"
        }
      ],
      "stateMutability": "view",
      "type": "function"
    },
    {
      "inputs": [],
      "name": "getAllDocuments",
      "outputs": [
        {
          "internalType": "bytes32[]",
          "name": "",
          "type": "bytes32[]"
        }
      ],
      "stateMutability": "view",
      "type": "function"
    },
    {
      "inputs": [],
      "name": "getDefaultPartitions",
      "outputs": [
        {
          "internalType": "bytes32[]",
          "name": "",
          "type": "bytes32[]"
        }
      ],
      "stateMutability": "view",
      "type": "function"
    },
    {
      "inputs": [
        {
          "internalType": "bytes32",
          "name": "documentName",
          "type": "bytes32"
        }
      ],
      "name": "getDocument",
      "outputs": [
        {
          "internalType": "string",
          "name": "",
          "type": "string"
        },
        {
          "internalType": "bytes32",
          "name": "",
          "type": "bytes32"
        },
        {
          "internalType": "uint256",
          "name": "",
          "type": "uint256"
        }
      ],
      "stateMutability": "view",
      "type": "function"
    },
    {
      "inputs": [],
      "name": "granularity",
      "outputs": [
        {
          "internalType": "uint256",
          "name": "",
          "type": "uint256"
        }
      ],
      "stateMutability": "view",
      "type": "function"
    },
    {
      "inputs": [],
      "name": "isControllable",
      "outputs": [
        {
          "internalType": "bool",
          "name": "",
          "type": "bool"
        }
      ],
      "stateMutability": "view",
      "type": "function"
    },
    {
      "inputs": [],
      "name": "isIssuable",
      "outputs": [
        {
          "internalType": "bool",
          "name": "",
          "type": "bool"
        }
      ],
      "stateMutability": "view",
      "type": "function"
    },
    {
      "inputs": [
        {
          "internalType": "address",
          "name": "account",
          "type": "address"
        }
      ],
      "name": "isMinter",
      "outputs": [
        {
          "internalType": "bool",
          "name": "",
          "type": "bool"
        }
      ],
      "stateMutability": "view",
      "type": "function"
    },
    {
      "inputs": [
        {
          "internalType": "address",
          "name": "operator",
          "type": "address"
        },
        {
          "internalType": "address",
          "name": "tokenHolder",
          "type": "address"
        }
      ],
      "name": "isOperator",
      "outputs": [
        {
          "internalType": "bool",
          "name": "",
          "type": "bool"
        }
      ],
      "stateMutability": "view",
      "type": "function"
    },
    {
      "inputs": [
        {
          "internalType": "bytes32",
          "name": "partition",
          "type": "bytes32"
        },
        {
          "internalType": "address",
          "name": "operator",
          "type": "address"
        },
        {
          "internalType": "address",
          "name": "tokenHolder",
          "type": "address"
        }
      ],
      "name": "isOperatorForPartition",
      "outputs": [
        {
          "internalType": "bool",
          "name": "",
          "type": "bool"
        }
      ],
      "stateMutability": "view",
      "type": "function"
    },
    {
      "inputs": [
        {
          "internalType": "address",
          "name": "tokenHolder",
          "type": "address"
        },
        {
          "internalType": "uint256",
          "name": "value",
          "type": "uint256"
        },
        {
          "internalType": "bytes",
          "name": "data",
          "type": "bytes"
        }
      ],
      "name": "issue",
      "outputs": [],
      "stateMutability": "nonpayable",
      "type": "function"
    },
    {
      "inputs": [
        {
          "internalType": "bytes32",
          "name": "partition",
          "type": "bytes32"
        },
        {
          "internalType": "address",
          "name": "tokenHolder",
          "type": "address"
        },
        {
          "internalType": "uint256",
          "name": "value",
          "type": "uint256"
        },
        {
          "internalType": "bytes",
          "name": "data",
          "type": "bytes"
        }
      ],
      "name": "issueByPartition",
      "outputs": [],
      "stateMutability": "nonpayable",
      "type": "function"
    },
    {
      "inputs": [
        {
          "internalType": "address",
          "name": "newContractAddress",
          "type": "address"
        },
        {
          "internalType": "bool",
          "name": "definitive",
          "type": "bool"
        }
      ],
      "name": "migrate",
      "outputs": [],
      "stateMutability": "nonpayable",
      "type": "function"
    },
    {
      "inputs": [],
      "name": "name",
      "outputs": [
        {
          "internalType": "string",
          "name": "",
          "type": "string"
        }
      ],
      "stateMutability": "view",
      "type": "function"
    },
    {
      "inputs": [
        {
          "internalType": "bytes32",
          "name": "partition",
          "type": "bytes32"
        },
        {
          "internalType": "address",
          "name": "tokenHolder",
          "type": "address"
        },
        {
          "internalType": "uint256",
          "name": "value",
          "type": "uint256"
        },
        {
          "internalType": "bytes",
          "name": "operatorData",
          "type": "bytes"
        }
      ],
      "name": "operatorRedeemByPartition",
      "outputs": [],
      "stateMutability": "nonpayable",
      "type": "function"
    },
    {
      "inputs": [
        {
          "internalType": "bytes32",
          "name": "partition",
          "type": "bytes32"
        },
        {
          "internalType": "address",
          "name": "from",
          "type": "address"
        },
        {
          "internalType": "address",
          "name": "to",
          "type": "address"
        },
        {
          "internalType": "uint256",
          "name": "value",
          "type": "uint256"
        },
        {
          "internalType": "bytes",
          "name": "data",
          "type": "bytes"
        },
        {
          "internalType": "bytes",
          "name": "operatorData",
          "type": "bytes"
        }
      ],
      "name": "operatorTransferByPartition",
      "outputs": [
        {
          "internalType": "bytes32",
          "name": "",
          "type": "bytes32"
        }
      ],
      "stateMutability": "nonpayable",
      "type": "function"
    },
    {
      "inputs": [],
      "name": "owner",
      "outputs": [
        {
          "internalType": "address",
          "name": "",
          "type": "address"
        }
      ],
      "stateMutability": "view",
      "type": "function"
    },
    {
      "inputs": [
        {
          "internalType": "address",
          "name": "tokenHolder",
          "type": "address"
        }
      ],
      "name": "partitionsOf",
      "outputs": [
        {
          "internalType": "bytes32[]",
          "name": "",
          "type": "bytes32[]"
        }
      ],
      "stateMutability": "view",
      "type": "function"
    },
    {
      "inputs": [
        {
          "internalType": "uint256",
          "name": "value",
          "type": "uint256"
        },
        {
          "internalType": "bytes",
          "name": "data",
          "type": "bytes"
        }
      ],
      "name": "redeem",
      "outputs": [],
      "stateMutability": "nonpayable",
      "type": "function"
    },
    {
      "inputs": [
        {
          "internalType": "bytes32",
          "name": "partition",
          "type": "bytes32"
        },
        {
          "internalType": "uint256",
          "name": "value",
          "type": "uint256"
        },
        {
          "internalType": "bytes",
          "name": "data",
          "type": "bytes"
        }
      ],
      "name": "redeemByPartition",
      "outputs": [],
      "stateMutability": "nonpayable",
      "type": "function"
    },
    {
      "inputs": [
        {
          "internalType": "address",
          "name": "from",
          "type": "address"
        },
        {
          "internalType": "uint256",
          "name": "value",
          "type": "uint256"
        },
        {
          "internalType": "bytes",
          "name": "data",
          "type": "bytes"
        }
      ],
      "name": "redeemFrom",
      "outputs": [],
      "stateMutability": "nonpayable",
      "type": "function"
    },
    {
      "inputs": [
        {
          "internalType": "bytes32",
          "name": "documentName",
          "type": "bytes32"
        }
      ],
      "name": "removeDocument",
      "outputs": [],
      "stateMutability": "nonpayable",
      "type": "function"
    },
    {
      "inputs": [
        {
          "internalType": "address",
          "name": "account",
          "type": "address"
        }
      ],
      "name": "removeMinter",
      "outputs": [],
      "stateMutability": "nonpayable",
      "type": "function"
    },
    {
      "inputs": [],
      "name": "renounceControl",
      "outputs": [],
      "stateMutability": "nonpayable",
      "type": "function"
    },
    {
      "inputs": [],
      "name": "renounceIssuance",
      "outputs": [],
      "stateMutability": "nonpayable",
      "type": "function"
    },
    {
      "inputs": [],
      "name": "renounceMinter",
      "outputs": [],
      "stateMutability": "nonpayable",
      "type": "function"
    },
    {
      "inputs": [],
      "name": "renounceOwnership",
      "outputs": [],
      "stateMutability": "nonpayable",
      "type": "function"
    },
    {
      "inputs": [
        {
          "internalType": "address",
          "name": "operator",
          "type": "address"
        }
      ],
      "name": "revokeOperator",
      "outputs": [],
      "stateMutability": "nonpayable",
      "type": "function"
    },
    {
      "inputs": [
        {
          "internalType": "bytes32",
          "name": "partition",
          "type": "bytes32"
        },
        {
          "internalType": "address",
          "name": "operator",
          "type": "address"
        }
      ],
      "name": "revokeOperatorByPartition",
      "outputs": [],
      "stateMutability": "nonpayable",
      "type": "function"
    },
    {
      "inputs": [
        {
          "internalType": "address[]",
          "name": "operators",
          "type": "address[]"
        }
      ],
      "name": "setControllers",
      "outputs": [],
      "stateMutability": "nonpayable",
      "type": "function"
    },
    {
      "inputs": [
        {
          "internalType": "bytes32[]",
          "name": "partitions",
          "type": "bytes32[]"
        }
      ],
      "name": "setDefaultPartitions",
      "outputs": [],
      "stateMutability": "nonpayable",
      "type": "function"
    },
    {
      "inputs": [
        {
          "internalType": "bytes32",
          "name": "documentName",
          "type": "bytes32"
        },
        {
          "internalType": "string",
          "name": "uri",
          "type": "string"
        },
        {
          "internalType": "bytes32",
          "name": "documentHash",
          "type": "bytes32"
        }
      ],
      "name": "setDocument",
      "outputs": [],
      "stateMutability": "nonpayable",
      "type": "function"
    },
    {
      "inputs": [
        {
          "internalType": "bytes32",
          "name": "partition",
          "type": "bytes32"
        },
        {
          "internalType": "address[]",
          "name": "operators",
          "type": "address[]"
        }
      ],
      "name": "setPartitionControllers",
      "outputs": [],
      "stateMutability": "nonpayable",
      "type": "function"
    },
    {
      "inputs": [
        {
          "internalType": "address",
          "name": "extension",
          "type": "address"
        },
        {
          "internalType": "string",
          "name": "interfaceLabel",
          "type": "string"
        },
        {
          "internalType": "bool",
          "name": "removeOldExtensionRoles",
          "type": "bool"
        },
        {
          "internalType": "bool",
          "name": "addMinterRoleForExtension",
          "type": "bool"
        },
        {
          "internalType": "bool",
          "name": "addControllerRoleForExtension",
          "type": "bool"
        }
      ],
      "name": "setTokenExtension",
      "outputs": [],
      "stateMutability": "nonpayable",
      "type": "function"
    },
    {
      "inputs": [],
      "name": "symbol",
      "outputs": [
        {
          "internalType": "string",
          "name": "",
          "type": "string"
        }
      ],
      "stateMutability": "view",
      "type": "function"
    },
    {
      "inputs": [],
      "name": "totalPartitions",
      "outputs": [
        {
          "internalType": "bytes32[]",
          "name": "",
          "type": "bytes32[]"
        }
      ],
      "stateMutability": "view",
      "type": "function"
    },
    {
      "inputs": [],
      "name": "totalSupply",
      "outputs": [
        {
          "internalType": "uint256",
          "name": "",
          "type": "uint256"
        }
      ],
      "stateMutability": "view",
      "type": "function"
    },
    {
      "inputs": [
        {
          "internalType": "bytes32",
          "name": "partition",
          "type": "bytes32"
        }
      ],
      "name": "totalSupplyByPartition",
      "outputs": [
        {
          "internalType": "uint256",
          "name": "",
          "type": "uint256"
        }
      ],
      "stateMutability": "view",
      "type": "function"
    },
    {
      "inputs": [
        {
          "internalType": "address",
          "name": "to",
          "type": "address"
        },
        {
          "internalType": "uint256",
          "name": "value",
          "type": "uint256"
        }
      ],
      "name": "transfer",
      "outputs": [
        {
          "internalType": "bool",
          "name": "",
          "type": "bool"
        }
      ],
      "stateMutability": "nonpayable",
      "type": "function"
    },
    {
      "inputs": [
        {
          "internalType": "bytes32",
          "name": "partition",
          "type": "bytes32"
        },
        {
          "internalType": "address",
          "name": "to",
          "type": "address"
        },
        {
          "internalType": "uint256",
          "name": "value",
          "type": "uint256"
        },
        {
          "internalType": "bytes",
          "name": "data",
          "type": "bytes"
        }
      ],
      "name": "transferByPartition",
      "outputs": [
        {
          "internalType": "bytes32",
          "name": "",
          "type": "bytes32"
        }
      ],
      "stateMutability": "nonpayable",
      "type": "function"
    },
    {
      "inputs": [
        {
          "internalType": "address",
          "name": "from",
          "type": "address"
        },
        {
          "internalType": "address",
          "name": "to",
          "type": "address"
        },
        {
          "internalType": "uint256",
          "name": "value",
          "type": "uint256"
        }
      ],
      "name": "transferFrom",
      "outputs": [
        {
          "internalType": "bool",
          "name": "",
          "type": "bool"
        }
      ],
      "stateMutability": "nonpayable",
      "type": "function"
    },
    {
      "inputs": [
        {
          "internalType": "address",
          "name": "from",
          "type": "address"
        },
        {
          "internalType": "address",
          "name": "to",
          "type": "address"
        },
        {
          "internalType": "uint256",
          "name": "value",
          "type": "uint256"
        },
        {
          "internalType": "bytes",
          "name": "data",
          "type": "bytes"
        }
      ],
      "name": "transferFromWithData",
      "outputs": [],
      "stateMutability": "nonpayable",
      "type": "function"
    },
    {
      "inputs": [
        {
          "internalType": "address",
          "name": "newOwner",
          "type": "address"
        }
      ],
      "name": "transferOwnership",
      "outputs": [],
      "stateMutability": "nonpayable",
      "type": "function"
    },
    {
      "inputs": [
        {
          "internalType": "address",
          "name": "to",
          "type": "address"
        },
        {
          "internalType": "uint256",
          "name": "value",
          "type": "uint256"
        },
        {
          "internalType": "bytes",
          "name": "data",
          "type": "bytes"
        }
      ],
      "name": "transferWithData",
      "outputs": [],
      "stateMutability": "nonpayable",
      "type": "function"
    },
    {
      "inputs": [
        {
          "internalType": "bytes32",
          "name": "partition",
          "type": "bytes32"
        },
        {
          "internalType": "address",
          "name": "to",
          "type": "address"
        },
        {
          "internalType": "uint256",
          "name": "value",
          "type": "uint256"
        },
        {
          "internalType": "bytes",
          "name": "data",
          "type": "bytes"
        }
      ],
      "name": "canTransferByPartition",
      "outputs": [
        {
          "internalType": "bytes1",
          "name": "",
          "type": "bytes1"
        },
        {
          "internalType": "bytes32",
          "name": "",
          "type": "bytes32"
        },
        {
          "internalType": "bytes32",
          "name": "",
          "type": "bytes32"
        }
      ],
      "stateMutability": "view",
      "type": "function"
    },
    {
      "inputs": [
        {
          "internalType": "bytes32",
          "name": "partition",
          "type": "bytes32"
        },
        {
          "internalType": "address",
          "name": "from",
          "type": "address"
        },
        {
          "internalType": "address",
          "name": "to",
          "type": "address"
        },
        {
          "internalType": "uint256",
          "name": "value",
          "type": "uint256"
        },
        {
          "internalType": "bytes",
          "name": "data",
          "type": "bytes"
        },
        {
          "internalType": "bytes",
          "name": "operatorData",
          "type": "bytes"
        }
      ],
      "name": "canOperatorTransferByPartition",
      "outputs": [
        {
          "internalType": "bytes1",
          "name": "",
          "type": "bytes1"
        },
        {
          "internalType": "bytes32",
          "name": "",
          "type": "bytes32"
        },
        {
          "internalType": "bytes32",
          "name": "",
          "type": "bytes32"
        }
      ],
      "stateMutability": "view",
      "type": "function"
    }
  ],
  "bytecode": "0x60806040523480156200001157600080fd5b5060405162005b6038038062005b60833981016040819052620000349162000e8a565b8888888888620000443362000329565b6200004f3362000379565b62000059620003cb565b5084516200006f90600490602088019062000ba7565b5083516200008590600590602087019062000ba7565b50600060075560018310156200009a57600080fd5b6006839055620000aa82620003f1565b8051620000bf90601490602084019062000c36565b506008805462ffff0019166201010017905560408051808201909152600c81526b22a921989a18182a37b5b2b760a11b6020808301919091526200010f91903090620004ee811b6200228a17901c565b620001486040518060400160405280600a81526020016922a92199182a37b5b2b760b11b81525030620004ee60201b6200228a1760201c565b620001826040518060400160405280600c81526020016b22a921989a18182a37b5b2b760a11b8152506200059c60201b620023341760201c565b620001ba6040518060400160405280600a81526020016922a92199182a37b5b2b760b11b8152506200059c60201b620023341760201c565b505050506001600160a01b038516159050620002ff5760405163118fa5db60e01b81526001600160a01b0385169063118fa5db906200020b90309085906001908190819081908f9060040162000fb6565b600060405180830381600087803b1580156200022657600080fd5b505af11580156200023b573d6000803e3d6000fd5b505050506001600160a01b03821615620002b35760405163c69664bb60e01b81523060048201526001600160a01b03838116602483015285169063c69664bb90604401600060405180830381600087803b1580156200029957600080fd5b505af1158015620002ae573d6000803e3d6000fd5b505050505b620002ff846040518060400160405280601681526020017f45524331343030546f6b656e7356616c696461746f72000000000000000000008152506001806001620005eb60201b60201c565b6001600160a01b038316156200031a576200031a83620006c5565b5050505050505050506200117e565b600080546001600160a01b038381166001600160a01b0319831681178455604051919092169283917f8be0079c531659141344cd1fd0a4f28419497f9722a3daafe3b4186f6b6457e09190a35050565b620003948160026200079a60201b620023811790919060201c565b6040516001600160a01b038216907f6ae172837ea30b801fbfcdd4108aa1d5bf8ff775444fd70256b44e6bf3dfc3f690600090a250565b60004681620003d96200081a565b60009283526003602052604090922082905550919050565b60005b6016548110156200046457600060176000601684815481106200041b576200041b62001152565b6000918252602080832091909101546001600160a01b031683528201929092526040019020805460ff1916911515919091179055806200045b8162001128565b915050620003f4565b5060005b8151811015620004d4576001601760008484815181106200048d576200048d62001152565b6020908102919091018101516001600160a01b03168252810191909152604001600020805460ff191691151591909117905580620004cb8162001128565b91505062000468565b508051620004ea90601690602084019062000c73565b5050565b60008260405160200162000503919062000f98565b60408051808303601f190181529082905280516020909101206329965a1d60e01b8252306004830152602482018190526001600160a01b03841660448301529150731820a4b7618bde71dce8cdc73aab6c95905fad24906329965a1d90606401600060405180830381600087803b1580156200057e57600080fd5b505af115801562000593573d6000803e3d6000fd5b50505050505050565b600180600083604051602001620005b4919062000f98565b60408051808303601f19018152918152815160209283012083529082019290925201600020805460ff191691151591909117905550565b6000620005f93086620008c1565b90506001600160a01b03811615801590620006115750835b15620006545762000622816200098d565b1562000633576200063381620009b0565b6001600160a01b0381166000908152601760205260409020805460ff191690555b6200066b8587620004ee60201b6200228a1760201c565b8280156200068157506200067f866200098d565b155b156200069257620006928662000379565b8115620006bd576001600160a01b0386166000908152601760205260409020805460ff191660011790555b505050505050565b6000546001600160a01b03163314620007255760405162461bcd60e51b815260206004820181905260248201527f4f776e61626c653a2063616c6c6572206973206e6f7420746865206f776e657260448201526064015b60405180910390fd5b6001600160a01b0381166200078c5760405162461bcd60e51b815260206004820152602660248201527f4f776e61626c653a206e6577206f776e657220697320746865207a65726f206160448201526564647265737360d01b60648201526084016200071c565b620007978162000329565b50565b620007a6828262000a02565b15620007f55760405162461bcd60e51b815260206004820152601f60248201527f526f6c65733a206163636f756e7420616c72656164792068617320726f6c650060448201526064016200071c565b6001600160a01b0316600090815260209190915260409020805460ff19166001179055565b600046817f8b73c3c69bb8fe3d512ecc4cf759cc79239f7b179b0ffacaa9a75d522b39400f6200084962000a87565b8051602090910120620008706040805180820190915260018152603160f81b602082015290565b80516020918201206040805192830194909452928101919091526060810191909152608081018390523060a082015260c00160408051601f1981840301815291905280516020909101209392505050565b60008082604051602001620008d7919062000f98565b60408051808303601f1901815290829052805160209091012063555ddc6560e11b82526001600160a01b0386166004830152602482018190529150731820a4b7618bde71dce8cdc73aab6c95905fad249063aabbb8ca9060440160206040518083038186803b1580156200094a57600080fd5b505afa1580156200095f573d6000803e3d6000fd5b505050506040513d601f19601f8201168201806040525081019062000985919062000e65565b949350505050565b6000620009aa82600262000a0260201b620023fd1790919060201c565b92915050565b620009cb81600262000b2160201b620024801790919060201c565b6040516001600160a01b038216907fe94479a9f7e1952cc78f2d6baab678adc1b772d936c6583def489e524cb6669290600090a250565b60006001600160a01b03821662000a675760405162461bcd60e51b815260206004820152602260248201527f526f6c65733a206163636f756e7420697320746865207a65726f206164647265604482015261737360f01b60648201526084016200071c565b506001600160a01b03166000908152602091909152604090205460ff1690565b60606004805462000a9890620010eb565b80601f016020809104026020016040519081016040528092919081815260200182805462000ac690620010eb565b801562000b175780601f1062000aeb5761010080835404028352916020019162000b17565b820191906000526020600020905b81548152906001019060200180831162000af957829003601f168201915b5050505050905090565b62000b2d828262000a02565b62000b855760405162461bcd60e51b815260206004820152602160248201527f526f6c65733a206163636f756e7420646f6573206e6f74206861766520726f6c6044820152606560f81b60648201526084016200071c565b6001600160a01b0316600090815260209190915260409020805460ff19169055565b82805462000bb590620010eb565b90600052602060002090601f01602090048101928262000bd9576000855562000c24565b82601f1062000bf457805160ff191683800117855562000c24565b8280016001018555821562000c24579182015b8281111562000c2457825182559160200191906001019062000c07565b5062000c3292915062000ccb565b5090565b82805482825590600052602060002090810192821562000c24579160200282018281111562000c2457825182559160200191906001019062000c07565b82805482825590600052602060002090810192821562000c24579160200282015b8281111562000c2457825182546001600160a01b0319166001600160a01b0390911617825560209092019160019091019062000c94565b5b8082111562000c32576000815560010162000ccc565b80516001600160a01b038116811462000cfa57600080fd5b919050565b600082601f83011262000d1157600080fd5b8151602062000d2a62000d248362001092565b6200105f565b80838252828201915082860187848660051b890101111562000d4b57600080fd5b60005b8581101562000d755762000d628262000ce2565b8452928401929084019060010162000d4e565b5090979650505050505050565b600082601f83011262000d9457600080fd5b8151602062000da762000d248362001092565b80838252828201915082860187848660051b890101111562000dc857600080fd5b60005b8581101562000d755781518452928401929084019060010162000dcb565b80516003811062000cfa57600080fd5b600082601f83011262000e0b57600080fd5b81516001600160401b0381111562000e275762000e2762001168565b62000e3c601f8201601f19166020016200105f565b81815284602083860101111562000e5257600080fd5b62000985826020830160208701620010b8565b60006020828403121562000e7857600080fd5b62000e838262000ce2565b9392505050565b60008060008060008060008060006101208a8c03121562000eaa57600080fd5b89516001600160401b038082111562000ec257600080fd5b62000ed08d838e0162000df9565b9a5060208c015191508082111562000ee757600080fd5b62000ef58d838e0162000df9565b995060408c0151985060608c015191508082111562000f1357600080fd5b62000f218d838e0162000cff565b975060808c015191508082111562000f3857600080fd5b5062000f478c828d0162000d82565b95505062000f5860a08b0162000ce2565b935062000f6860c08b0162000ce2565b925062000f7860e08b0162000ce2565b915062000f896101008b0162000de9565b90509295985092959850929598565b6000825162000fac818460208701620010b8565b9190910192915050565b6001600160a01b03888116825260009060e0830190602060038b1062000fec57634e487b7160e01b600052602160045260246000fd5b8481018b905289151560408601528815156060860152871515608086015286151560a086015260e060c08601528551928390528581019261010086019060005b818110156200104c5785518516835294830194918301916001016200102c565b50909d9c50505050505050505050505050565b604051601f8201601f191681016001600160401b03811182821017156200108a576200108a62001168565b604052919050565b60006001600160401b03821115620010ae57620010ae62001168565b5060051b60200190565b60005b83811015620010d5578181015183820152602001620010bb565b83811115620010e5576000848401525b50505050565b600181811c908216806200110057607f821691505b602082108114156200112257634e487b7160e01b600052602260045260246000fd5b50919050565b60006000198214156200114b57634e487b7160e01b600052601160045260246000fd5b5060010190565b634e487b7160e01b600052603260045260246000fd5b634e487b7160e01b600052604160045260246000fd5b6149d2806200118e6000396000f3fe608060405234801561001057600080fd5b50600436106102ca5760003560e01c8063010648ca146102cf57806306fdde03146102e4578063095ea7b314610302578063103ef9e11461032557806314d1e62f14610338578063168ecec51461034b57806316e1aed41461035e57806317ec83ca1461037157806318160ddd146103bd5780631d43e1c0146103c557806323b872dd146103cd578063249cb3fa146103e05780632535f762146103f35780632f1cae85146104065780633092afd51461041757806330e828031461042a578063313ce5671461045d5780634c783bf51461046c578063556f0dc71461047c57806362eb00681461048457806367c849191461049757806369598efe146104aa5780636c23c7b0146104bf5780636c30d170146104f85780636d77cad61461050057806370a0823114610513578063715018a61461053c578063740ab8f4146105445780637cc0c3a714610557578063861ed3ea1461056c578063895d7386146102e45780638c0dee9c1461057f5780638da5cb5b1461059257806392127126146105b2578063933964c7146105c5578063959b8c3f146105d857806395d89b41146105eb5780639675193c146105f3578063983b2d5614610606578063986502751461061957806398ddcec7146106215780639fa5f50b14610634578063a26734dc1461063c578063a6f4f1051461065c578063a8082cb01461066f578063a9059cbb14610677578063aa271e1a1461068a578063b10d6b411461069d578063b6363cf2146106bf578063bb3acde9146106d2578063bcfdc0cf146106e5578063c3501848146106ed578063ca281fd914610700578063dd62ed3e14610708578063e77c646d14610741578063ea74838a14610754578063ec9a6e8714610767578063ee532f311461077a578063f2fde38b1461078d578063f3d490db146107a0578063f698da25146107b3578063fad8b32a146107bb575b600080fd5b6102e26102dd366004614364565b6107ce565b005b6102ec610908565b6040516102f9919061467e565b60405180910390f35b610315610310366004614095565b61099a565b60405190151581526020016102f9565b6102e26103333660046141ba565b610a30565b6103156103463660046142c8565b610a94565b6102e26103593660046141ba565b610b2c565b6102e261036c366004614319565b610b8d565b6103af61037f3660046141df565b60009283526018602090815260408085206001600160a01b03948516865282528085209290931684525290205490565b6040519081526020016102f9565b6007546103af565b6102ec610bfe565b6103156103db366004613f27565b610c19565b6103af6103ee3660046141ba565b610d3b565b6102e26104013660046140c1565b610d9a565b60085462010000900460ff16610315565b6102e2610425366004613eb4565b610de3565b6103af6104383660046141ba565b6001600160a01b03166000908152601360209081526040808320938352929052205490565b604051601281526020016102f9565b600854610100900460ff16610315565b6006546103af565b6102e26104923660046143b6565b610e1b565b6102e26104a53660046142ef565b610e6c565b6104b2610f0a565b6040516102f99190614530565b6104d26104cd366004614221565b610f61565b604080516001600160f81b031990941684526020840192909252908201526060016102f9565b6102e261104c565b61031561050e3660046141df565b611089565b6103af610521366004613eb4565b6001600160a01b031660009081526009602052604090205490565b6102e261109e565b6104b2610552366004613eb4565b6110d9565b61055f611145565b6040516102f991906144e3565b61055f61057a3660046141a1565b6111a6565b6103af61058d366004614221565b611211565b61059a6113b6565b6040516001600160a01b0390911681526020016102f9565b6104d26105c03660046142ef565b6113c5565b6102e26105d3366004613fda565b611475565b6102e26105e6366004613eb4565b6114b2565b6102ec611521565b6102e26106013660046140c1565b611530565b6102e2610614366004613eb4565b61166c565b6102e26116a1565b6102e261062f3660046142ef565b6116aa565b6104b2611830565b6103af61064a3660046141a1565b60009081526010602052604090205490565b6102e261066a36600461400f565b611886565b6103af611902565b610315610685366004614095565b61198f565b610315610698366004613eb4565b6119b6565b6106b06106ab3660046141a1565b6119c3565b6040516102f9939291906146b3565b6103156106cd366004613eee565b611aa1565b6102e26106e03660046140c1565b611ab4565b6104b2611b88565b6102e26106fb3660046141a1565b611bde565b6102e2611eb3565b6103af610716366004613eee565b6001600160a01b039182166000908152600a6020908152604080832093909416825291909152205490565b6102e261074f3660046143f0565b611eef565b6102e261076236600461411c565b611f31565b6102e261077536600461411c565b611f9c565b6102e2610788366004613f68565b611fd7565b6102e261079b366004613eb4565b612114565b6103af6107ae3660046142ef565b6121b1565b6103af61220f565b6102e26107c9366004613eb4565b61221e565b3360009081526017602052604090205460ff166107ea57600080fd5b604051806060016040528084848080601f0160208091040260200160405190810160405280939291908181526020018383808284376000920182905250938552505050602080830185905242604093840152878252600b815291902082518051919261085b92849290910190613cb0565b5060208281015160018301556040928301516002909201919091556000838152600c90915220546108c657600d80546001810182557fd7b6990105719101dabeb77144f2a3385c8033acd3af97e9423a695e81ad1eb501829055546000828152600c60205260409020555b837fb4c22d60cd550a815744f04e3ff5278bf19684565ee00e2b084041b6024bd6f68484846040516108fa9392919061465a565b60405180910390a250505050565b606060048054610917906148b9565b80601f0160208091040260200160405190810160405280929190818152602001828054610943906148b9565b80156109905780601f1061096557610100808354040283529160200191610990565b820191906000526020600020905b81548152906001019060200180831161097357829003601f168201915b5050505050905090565b60006001600160a01b0383166109cb5760405162461bcd60e51b81526004016109c290614710565b60405180910390fd5b336000818152600a602090815260408083206001600160a01b03881680855290835292819020869055518581529192917f8c5be1e5ebec7d5bd14f71427d1e84f3dd0314c0f7b2291e5b200ac8c7c3b925910160405180910390a35060015b92915050565b33600081815260196020908152604080832086845282528083206001600160a01b0386168085529252808320805460ff1916600117905551909185917f3646a897c70797ecc134b0adc32f471b07bf1d6f451133b0384badab531e3fd69190a45050565b60006001600160a01b038316610abc5760405162461bcd60e51b81526004016109c290614710565b6000848152601860209081526040808320338085529083528184206001600160a01b038816808652908452938290208690559051858152909187917ff061499aa77c2f6f5e25e34955a06623705344a88256cc861a121ec0bce5cfec910160405180910390a45060019392505050565b33600081815260196020908152604080832086845282528083206001600160a01b0386168085529252808320805460ff1916905551909185917f3b287c4f1bab4df949b33bceacef984f544dc5d5479930d00e4ee8c9d8dd96f29190a45050565b33610b966113b6565b6001600160a01b031614610bbc5760405162461bcd60e51b81526004016109c290614748565b610bf98383838080602002602001604051908101604052809392919081815260200183836020028082843760009201919091525061250292505050565b505050565b6040805180820190915260018152603160f81b602082015290565b6000610c253385612625565b80610c5357506001600160a01b0384166000908152600a602090815260408083203384529091529020548211155b610c6f5760405162461bcd60e51b81526004016109c29061477d565b6001600160a01b0384166000908152600a602090815260408083203384529091529020548211610cf0576001600160a01b0384166000908152600a60209081526040808320338452909152902054610cc790836126a4565b6001600160a01b0385166000908152600a60209081526040808320338452909152902055610d15565b6001600160a01b0384166000908152600a602090815260408083203384529091528120555b610d3133858585604051806020016040528060008152506126b0565b5060019392505050565b60008281526001602052604081205460ff1615610d925760405173455243313832305f4143434550545f4d4147494360601b6020820152603401604051602081830303815290604052805190602001209050610a2a565b506000610a2a565b610ddd3333868686868080601f0160208091040260200160405190810160405280939291908181526020018383808284376000920191909152506126b092505050565b50505050565b610dec336119b6565b80610e06575033610dfb6113b6565b6001600160a01b0316145b610e0f57600080fd5b610e18816127f5565b50565b610ddd8433338686868080601f016020809104026020016040519081016040528093929190818152602001838380828437600092018290525060408051602081019091529081529250612837915050565b610e75336119b6565b80610e8f575033610e846113b6565b6001600160a01b0316145b610e9857600080fd5b60085462010000900460ff16610ec05760405162461bcd60e51b81526004016109c29061472c565b610f038533868686868080601f01602080910402602001604051908101604052809392919081815260200183838082843760009201919091525061290792505050565b5050505050565b6060600e80548060200260200160405190810160405280929190818152602001828054801561099057602002820191906000526020600020905b815481526020019060010190808311610f44575050505050905090565b6000806000611037610fb1638c0dee9c60e01b6000368080601f0160208091040260200160405190810160405280939291908181526020018383808284376000920191909152506129b192505050565b8c338d8d8d8d8d8080601f016020809104026020016040519081016040528093929190818152602001838380828437600081840152601f19601f820116905080830192505050505050508c8c8080601f016020809104026020016040519081016040528093929190818152602001838380828437600092019190915250612ac592505050565b9250925092505b985098509895505050505050565b336110556113b6565b6001600160a01b03161461107b5760405162461bcd60e51b81526004016109c290614748565b6008805462ff000019169055565b6000611096848484612bb8565b949350505050565b336110a76113b6565b6001600160a01b0316146110cd5760405162461bcd60e51b81526004016109c290614748565b6110d76000612c41565b565b6001600160a01b03811660009081526011602090815260409182902080548351818402810184019094528084526060939283018282801561113957602002820191906000526020600020905b815481526020019060010190808311611125575b50505050509050919050565b6060601680548060200260200160405190810160405280929190818152602001828054801561099057602002820191906000526020600020905b81546001600160a01b0316815260019091019060200180831161117f575050505050905090565b6000818152601a602090815260409182902080548351818402810184019094528084526060939283018282801561113957602002820191906000526020600020905b81546001600160a01b031681526001909101906020018083116111e85750505050509050919050565b600061121e89338a612bb8565b80611253575060008981526018602090815260408083206001600160a01b038c16845282528083203384529091529020548611155b61126f5760405162461bcd60e51b81526004016109c29061477d565b60008981526018602090815260408083206001600160a01b038c168452825280832033845290915290205486116113055760008981526018602090815260408083206001600160a01b038c16845282528083203384529091529020546112d590876126a4565b60008a81526018602090815260408083206001600160a01b038d1684528252808320338452909152902055611331565b60008981526018602090815260408083206001600160a01b038c16845282528083203384529091528120555b6113a989338a8a8a8a8a8080601f01602080910402602001604051908101604052809392919081815260200183838082843760009201919091525050604080516020601f8e018190048102820181019092528c815292508c91508b9081908401838280828437600092019190915250612c9192505050565b9998505050505050505050565b6000546001600160a01b031690565b600080600061146461141563f3d490db60e01b6000368080601f0160208091040260200160405190810160405280939291908181526020018383808284376000920191909152506129b192505050565b8933338b8b8b8b8080601f016020809104026020016040519081016040528093929190818152602001838380828437600092018290525060408051602081019091529081529250612ac5915050565b925092509250955095509592505050565b3361147e6113b6565b6001600160a01b0316146114a45760405162461bcd60e51b81526004016109c290614748565b6114ae8282612de9565b5050565b6001600160a01b0381163314156114c857600080fd5b6001600160a01b0381166000818152601560209081526040808320338085529252808320805460ff19166001179055519092917ff4caeb2d6ca8932a215a353d0703c326ec2d81fc68170f320eb2ab49e9df61f991a350565b606060058054610917906148b9565b61153a3385612625565b8061156857506001600160a01b0384166000908152600a602090815260408083203384529091529020548311155b6115845760405162461bcd60e51b81526004016109c29061477d565b6001600160a01b0384166000908152600a602090815260408083203384529091529020548311611605576001600160a01b0384166000908152600a602090815260408083203384529091529020546115dc90846126a4565b6001600160a01b0385166000908152600a6020908152604080832033845290915290205561162a565b6001600160a01b0384166000908152600a602090815260408083203384529091528120555b610ddd33858585858080601f016020809104026020016040519081016040528093929190818152602001838380828437600092019190915250612e5a92505050565b611675336119b6565b8061168f5750336116846113b6565b6001600160a01b0316145b61169857600080fd5b610e1881612f94565b6110d7336127f5565b6116b5853386612bb8565b806116ea575060008581526018602090815260408083206001600160a01b038816845282528083203384529091529020548311155b61171b5760405162461bcd60e51b815260206004820152600260248201526106a760f31b60448201526064016109c2565b60008581526018602090815260408083206001600160a01b0388168452825280832033845290915290205483116117b15760008581526018602090815260408083206001600160a01b0388168452825280832033845290915290205461178190846126a4565b60008681526018602090815260408083206001600160a01b038916845282528083203384529091529020556117dd565b60008581526018602090815260408083206001600160a01b038816845282528083203384529091528120555b610f03853386866040518060200160405280600081525087878080601f01602080910402602001604051908101604052809392919081815260200183838082843760009201919091525061283792505050565b6060600d8054806020026020016040519081016040528092919081815260200182805480156109905760200282019190600052602060002090815481526020019060010190808311610f44575050505050905090565b3361188f6113b6565b6001600160a01b0316146118b55760405162461bcd60e51b81526004016109c290614748565b6118fa8686868080601f016020809104026020016040519081016040528093929190818152602001838380828437600092019190915250889250879150869050612fd6565b505050505050565b600046817f8b73c3c69bb8fe3d512ecc4cf759cc79239f7b179b0ffacaa9a75d522b39400f61192f610908565b8051906020012061193e610bfe565b80516020918201206040805192830194909452928101919091526060810191909152608081018390523060a082015260c00160408051601f1981840301815291905280516020909101209392505050565b60006119ad33338585604051806020016040528060008152506126b0565b50600192915050565b6000610a2a6002836123fd565b6000818152600b6020526040812080546060929182916119e2906148b9565b151590506119ef57600080fd5b6000848152600b602052604090206001810154600282015482548390611a14906148b9565b80601f0160208091040260200160405190810160405280929190818152602001828054611a40906148b9565b8015611a8d5780601f10611a6257610100808354040283529160200191611a8d565b820191906000526020600020905b815481529060010190602001808311611a7057829003601f168201915b505050505092509250925092509193909250565b6000611aad8383612625565b9392505050565b611abd336119b6565b80611ad7575033611acc6113b6565b6001600160a01b0316145b611ae057600080fd5b60085462010000900460ff16611b085760405162461bcd60e51b81526004016109c29061472c565b601454611b275760405162461bcd60e51b81526004016109c29061472c565b610ddd6014600081548110611b3e57611b3e61493b565b906000526020600020015433868686868080601f01602080910402602001604051908101604052809392919081815260200183838082843760009201919091525061290792505050565b606060148054806020026020016040519081016040528092919081815260200182805480156109905760200282019190600052602060002090815481526020019060010190808311610f44575050505050905090565b3360009081526017602052604090205460ff16611c2c5760405162461bcd60e51b815260206004820152600c60248201526b155b985d5d1a1bdc9a5e995960a21b60448201526064016109c2565b6000818152600b602052604090208054611c45906148b9565b15159050611c8d5760405162461bcd60e51b8152602060048201526015602482015274111bd8dd5b595b9d08191bd95cdb9d08195e1a5cdd605a1b60448201526064016109c2565b6000818152600b6020526040808220815160608101909252805482908290611cb4906148b9565b80601f0160208091040260200160405190810160405280929190818152602001828054611ce0906148b9565b8015611d2d5780601f10611d0257610100808354040283529160200191611d2d565b820191906000526020600020905b815481529060010190602001808311611d1057829003601f168201915b505050505081526020016001820154815260200160028201548152505090506000600c60008360200151815260200190815260200160002054905060008111611da85760405162461bcd60e51b815260206004820152600d60248201526c092dcecc2d8d2c840d2dcc8caf609b1b60448201526064016109c2565b600d805460009190611dbc90600190614876565b81548110611dcc57611dcc61493b565b9060005260206000200154905080600d600184611de99190614876565b81548110611df957611df961493b565b6000918252602080832090910192909255828152600c90915260409020829055600d805480611e2a57611e2a614925565b600082815260208082208301600019908101839055909201909255848101518252600c81526040808320839055868352600b909152812090611e6c8282613d34565b506000600182018190556002909101558251602084015160405186927f3d9bba27d3e360d8c80645beed7e991454a8271bf6f269a24f7782be0f0d0654926108fa92614691565b33611ebc6113b6565b6001600160a01b031614611ee25760405162461bcd60e51b81526004016109c290614748565b6008805461ff0019169055565b610bf933338585858080601f016020809104026020016040519081016040528093929190818152602001838380828437600092019190915250612e5a92505050565b33611f3a6113b6565b6001600160a01b031614611f605760405162461bcd60e51b81526004016109c290614748565b6114ae82828080602002602001604051908101604052809392919081815260200183836020028082843760009201919091525061309292505050565b33611fa56113b6565b6001600160a01b031614611fcb5760405162461bcd60e51b81526004016109c290614748565b610bf960148383613d6e565b611fe13386612625565b8061200f57506001600160a01b0385166000908152600a602090815260408083203384529091529020548311155b61202b5760405162461bcd60e51b81526004016109c29061477d565b6001600160a01b0385166000908152600a6020908152604080832033845290915290205483116120ac576001600160a01b0385166000908152600a6020908152604080832033845290915290205461208390846126a4565b6001600160a01b0386166000908152600a602090815260408083203384529091529020556120d1565b6001600160a01b0385166000908152600a602090815260408083203384529091528120555b610f033386868686868080601f0160208091040260200160405190810160405280939291908181526020018383808284376000920191909152506126b092505050565b3361211d6113b6565b6001600160a01b0316146121435760405162461bcd60e51b81526004016109c290614748565b6001600160a01b0381166121a85760405162461bcd60e51b815260206004820152602660248201527f4f776e61626c653a206e6577206f776e657220697320746865207a65726f206160448201526564647265737360d01b60648201526084016109c2565b610e1881612c41565b6000612205863333888888888080601f016020809104026020016040519081016040528093929190818152602001838380828437600092018290525060408051602081019091529081529250612c91915050565b9695505050505050565b600061221961317b565b905090565b6001600160a01b03811633141561223457600080fd5b6001600160a01b0381166000818152601560209081526040808320338085529252808320805460ff19169055519092917f50546e66e5f44d728365dc3908c63bc5cfeeab470722c1677e3073a6ac294aa191a350565b60008260405160200161229d9190614483565b60408051808303601f190181529082905280516020909101206329965a1d60e01b8252306004830152602482018190526001600160a01b03841660448301529150731820a4b7618bde71dce8cdc73aab6c95905fad24906329965a1d90606401600060405180830381600087803b15801561231757600080fd5b505af115801561232b573d6000803e3d6000fd5b50505050505050565b60018060008360405160200161234a9190614483565b60408051808303601f19018152918152815160209283012083529082019290925201600020805460ff191691151591909117905550565b61238b82826123fd565b156123d85760405162461bcd60e51b815260206004820152601f60248201527f526f6c65733a206163636f756e7420616c72656164792068617320726f6c650060448201526064016109c2565b6001600160a01b0316600090815260209190915260409020805460ff19166001179055565b60006001600160a01b0382166124605760405162461bcd60e51b815260206004820152602260248201527f526f6c65733a206163636f756e7420697320746865207a65726f206164647265604482015261737360f01b60648201526084016109c2565b506001600160a01b03166000908152602091909152604090205460ff1690565b61248a82826123fd565b6124e05760405162461bcd60e51b815260206004820152602160248201527f526f6c65733a206163636f756e7420646f6573206e6f74206861766520726f6c6044820152606560f81b60648201526084016109c2565b6001600160a01b0316600090815260209190915260409020805460ff19169055565b60005b6000838152601a602052604090205481101561258e576000838152601b60209081526040808320601a90925282208054839190859081106125485761254861493b565b6000918252602080832091909101546001600160a01b031683528201929092526040019020805460ff191691151591909117905580612586816148f4565b915050612505565b5060005b8151811015612605576000838152601b602052604081208351600192908590859081106125c1576125c161493b565b6020908102919091018101516001600160a01b03168252810191909152604001600020805460ff1916911515919091179055806125fd816148f4565b915050612592565b506000828152601a602090815260409091208251610bf992840190613da9565b6000816001600160a01b0316836001600160a01b0316148061266c57506001600160a01b0380841660009081526015602090815260408083209386168352929052205460ff165b80611aad5750600854610100900460ff168015611aad575050506001600160a01b031660009081526017602052604090205460ff1690565b6000611aad8284614876565b6014546126cf5760405162461bcd60e51b81526004016109c29061472c565b816000805b6014548110156127d6576001600160a01b0387166000908152601360205260408120601480549192918490811061270d5761270d61493b565b906000526020600020015481526020019081526020016000205491508183116127755761276b601482815481106127465761274661493b565b9060005260206000200154898989878960405180602001604052806000815250612c91565b50600092506127d6565b81156127c4576127b6601482815481106127915761279161493b565b9060005260206000200154898989868960405180602001604052806000815250612c91565b506127c18284614876565b92505b806127ce816148f4565b9150506126d4565b50811561232b5760405162461bcd60e51b81526004016109c290614799565b612800600282612480565b6040516001600160a01b038216907fe94479a9f7e1952cc78f2d6baab678adc1b772d936c6583def489e524cb6669290600090a250565b6001600160a01b038416600090815260136020908152604080832089845290915290205483111561287a5760405162461bcd60e51b81526004016109c290614799565b61288a86868660008787876131a4565b61289a8686866000878787613266565b6128a58487856132ee565b6128b1858585856135ad565b836001600160a01b0316856001600160a01b0316877fce306c3dbc4a497124b5a4f2be8388b41084c1d74663da27ecee1186c00239bf86856040516128f79291906147d1565b60405180910390a4505050505050565b6129268585600086868660405180602001604052806000815250613266565b61293284848484613725565b61293d83868461384e565b61295c858560008686866040518060200160405280600081525061398c565b826001600160a01b0316846001600160a01b0316867ff0ded82afbb1bb3ff3fc48cb2a26584aa84e4af0bf309c804ecdb94d0f6a98bb85856040516129a29291906147ea565b60405180910390a45050505050565b6060600082516001600160401b038111156129ce576129ce614951565b6040519080825280601f01601f1916602001820160405280156129f8576020820181803683370190505b50905060005b6004811015612a5857848160048110612a1957612a1961493b565b1a60f81b828281518110612a2f57612a2f61493b565b60200101906001600160f81b031916908160001a90535080612a50816148f4565b9150506129fe565b5060045b8351811015612abd57838181518110612a7757612a7761493b565b602001015160f81c60f81b828281518110612a9457612a9461493b565b60200101906001600160f81b031916908160001a90535080612ab5816148f4565b915050612a5c565b509392505050565b600080600080612b01306040518060400160405280601481526020017322a921989a18182a37b5b2b739a1b432b1b5b2b960611b815250613a14565b90506001600160a01b03811615612ba85760405163c71ff52760e01b81526001600160a01b0382169063c71ff52790612b4c908f908f908f908f908f908f908f908f906004016145e2565b60606040518083038186803b158015612b6457600080fd5b505afa158015612b78573d6000803e3d6000fd5b505050506040513d601f19601f82011682018060405250810190612b9c919061415d565b9350935093505061103e565b506000925082915089905061103e565b6000612bc48383612625565b80612bfc57506001600160a01b03808316600090815260196020908152604080832088845282528083209387168352929052205460ff165b806110965750600854610100900460ff168015611096575050506000918252601b602090815260408084206001600160a01b0393909316845291905290205460ff1690565b600080546001600160a01b038381166001600160a01b0319831681178455604051919092169283917f8be0079c531659141344cd1fd0a4f28419497f9722a3daafe3b4186f6b6457e09190a35050565b6001600160a01b03851660009081526013602090815260408083208a8452909152812054841115612cd45760405162461bcd60e51b81526004016109c290614799565b8151889015801590612ce857506040845110155b15612cfa57612cf78985613ad2565b90505b612d09898989898989896131a4565b612d1889898989898989613266565b612d23878a876132ee565b612d2e878787613afe565b612d3986828761384e565b612d488189898989898961398c565b856001600160a01b0316876001600160a01b03168a7fff4e9a26af4eb73b8bacfaa4abd4fea03d9448e7b912dc5ff4019048875aa2d48b898989604051612d92949392919061449f565b60405180910390a4888114612ddd5780897f67c8ba31d2dd11f1384577b3405b04ed91eed1231e408432ad2458cab37b2fa187604051612dd491815260200190565b60405180910390a35b98975050505050505050565b612e156040518060400160405280600a81526020016922a92199182a37b5b2b760b11b8152508361228a565b612e436040518060400160405280600c81526020016b22a921989a18182a37b5b2b760a11b8152508361228a565b80156114ae576008805460ff191660011790555050565b601454612e795760405162461bcd60e51b81526004016109c29061472c565b816000805b601454811015612f75576001600160a01b03861660009081526013602052604081206014805491929184908110612eb757612eb761493b565b90600052602060002001548152602001908152602001600020549150818311612f1d57612f1460148281548110612ef057612ef061493b565b90600052602060002001548888868860405180602001604052806000815250612837565b60009250612f75565b612f5760148281548110612f3357612f3361493b565b90600052602060002001548888858860405180602001604052806000815250612837565b612f618284614876565b925080612f6d816148f4565b915050612e7e565b5081156118fa5760405162461bcd60e51b81526004016109c290614799565b612f9f600282612381565b6040516001600160a01b038216907f6ae172837ea30b801fbfcdd4108aa1d5bf8ff775444fd70256b44e6bf3dfc3f690600090a250565b6000612fe23086613a14565b90506001600160a01b03811615801590612ff95750835b1561303657613007816119b6565b1561301557613015816127f5565b6001600160a01b0381166000908152601760205260409020805460ff191690555b613040858761228a565b8280156130535750613051866119b6565b155b156130615761306186612f94565b81156118fa576001600160a01b0386166000908152601760205260409020805460ff19166001179055505050505050565b60005b6016548110156130fe57600060176000601684815481106130b8576130b861493b565b6000918252602080832091909101546001600160a01b031683528201929092526040019020805460ff1916911515919091179055806130f6816148f4565b915050613095565b5060005b8151811015613167576001601760008484815181106131235761312361493b565b6020908102919091018101516001600160a01b03168252810191909152604001600020805460ff19169115159190911790558061315f816148f4565b915050613102565b5080516114ae906016906020840190613da9565b46600090815260036020526040812054801561319657919050565b61319e613c45565b91505090565b60006131db866040518060400160405280601381526020017222a921989a18182a37b5b2b739a9b2b73232b960691b815250613a14565b90506001600160a01b0381161561325c5760405163139d569560e21b81526001600160a01b03821690634e755a54906132299060009036908d908d908d908d908d908d908d90600401614568565b600060405180830381600087803b15801561324357600080fd5b505af1158015613257573d6000803e3d6000fd5b505050505b5050505050505050565b60006132a0306040518060400160405280601681526020017522a921989a18182a37b5b2b739ab30b634b230ba37b960511b815250613a14565b90506001600160a01b0381161561325c57604051632907d53b60e11b81526001600160a01b0382169063520faa76906132299060009036908d908d908d908d908d908d908d90600401614568565b6001600160a01b038316600090815260136020908152604080832085845290915290205461331c90826126a4565b6001600160a01b038416600090815260136020908152604080832086845282528083209390935560109052205461335390826126a4565b6000838152601060205260409020819055613440576000828152600f6020526040902054806133945760405162461bcd60e51b81526004016109c2906146f4565b600e8054600091906133a890600190614876565b815481106133b8576133b861493b565b9060005260206000200154905080600e6001846133d59190614876565b815481106133e5576133e561493b565b6000918252602080832090910192909255828152600f90915260409020829055600e80548061341657613416614925565b600082815260208082208301600019908101839055909201909255858252600f9052604081205550505b6001600160a01b0383166000908152601360209081526040808320858452909152902054610bf9576001600160a01b0383166000908152601260209081526040808320858452909152902054806134a95760405162461bcd60e51b81526004016109c2906146f4565b6001600160a01b038416600090815260116020526040812080546134cf90600190614876565b815481106134df576134df61493b565b60009182526020808320909101546001600160a01b0388168352601190915260409091209091508190613513600185614876565b815481106135235761352361493b565b60009182526020808320909101929092556001600160a01b038716808252601283526040808320858452845280832086905590825260119092522080548061356d5761356d614925565b6000828152602080822083016000199081018390559092019092556001600160a01b03871682526012815260408083208784529091528120555050505050565b60085460ff16156135d05760405162461bcd60e51b81526004016109c2906146d8565b6135d982613c69565b6135f55760405162461bcd60e51b81526004016109c2906146f4565b6001600160a01b03831661361b5760405162461bcd60e51b81526004016109c290614710565b6001600160a01b0383166000908152600960205260409020548211156136535760405162461bcd60e51b81526004016109c290614799565b6001600160a01b03831660009081526009602052604090205461367690836126a4565b6001600160a01b03841660009081526009602052604090205560075461369c90836126a4565b600781905550826001600160a01b0316846001600160a01b03167fb7d0d6b60740753e9f16692a2f479472a1385aec2420fa43225b02f2ffa1afe784846040516136e79291906147d1565b60405180910390a36040518281526000906001600160a01b0385169060008051602061497d833981519152906020015b60405180910390a350505050565b60085460ff16156137485760405162461bcd60e51b81526004016109c2906146d8565b61375182613c69565b61376d5760405162461bcd60e51b81526004016109c2906146f4565b6001600160a01b0383166137935760405162461bcd60e51b81526004016109c2906147b5565b6007546137a09083613c8c565b6007556001600160a01b0383166000908152600960205260409020546137c69083613c8c565b6001600160a01b0380851660008181526009602052604090819020939093559151908616907f0e9905d62635f049c2f4e11678ebf9dc3d1f8c4a653e290759b772e47ba00d009061381a90869086906147d1565b60405180910390a36040518281526001600160a01b0384169060009060008051602061497d83398151915290602001613717565b8015610bf9576001600160a01b03831660009081526012602090815260408083208584529091529020546138c0576001600160a01b0383166000818152601160209081526040808320805460018101825581855283852001879055938352925460128252838320868452909152919020555b6001600160a01b03831660009081526013602090815260408083208584529091529020546138ee9082613c8c565b6001600160a01b0384166000908152601360209081526040808320868452825280832093909355600f9052205461395f57600e80546001810182557fbb7b4a454dc3493923482f07822329ed19e8244eff582cc204f8554c3620c3fd01839055546000838152600f60205260409020555b6000828152601060205260409020546139789082613c8c565b600083815260106020526040902055505050565b60006139c68560405180604001604052806016815260200175115490cc4d0c0c151bdad95b9cd49958da5c1a595b9d60521b815250613a14565b90506001600160a01b0381161561325c57604051637a325abb60e11b81526001600160a01b0382169063f464b576906132299060009036908d908d908d908d908d908d908d90600401614568565b60008082604051602001613a289190614483565b60408051808303601f1901815290829052805160209091012063555ddc6560e11b82526001600160a01b0386166004830152602482018190529150731820a4b7618bde71dce8cdc73aab6c95905fad249063aabbb8ca9060440160206040518083038186803b158015613a9a57600080fd5b505afa158015613aae573d6000803e3d6000fd5b505050506040513d601f19601f820116820180604052508101906110969190613ed1565b60208101516000906000199080821415613af25760408401519250613af6565b8492505b505092915050565b60085460ff1615613b215760405162461bcd60e51b81526004016109c2906146d8565b613b2a81613c69565b613b465760405162461bcd60e51b81526004016109c2906146f4565b6001600160a01b038216613b6c5760405162461bcd60e51b81526004016109c2906147b5565b6001600160a01b038316600090815260096020526040902054811115613ba45760405162461bcd60e51b81526004016109c290614799565b6001600160a01b038316600090815260096020526040902054613bc790826126a4565b6001600160a01b038085166000908152600960205260408082209390935590841681522054613bf69082613c8c565b6001600160a01b03808416600081815260096020526040908190209390935591519085169060008051602061497d83398151915290613c389085815260200190565b60405180910390a3505050565b60004681613c51611902565b60009283526003602052604090922082905550919050565b6006546000908290613c8590613c7f8382613c98565b90613ca4565b1492915050565b6000611aad828461481d565b6000611aad8284614835565b6000611aad8284614857565b828054613cbc906148b9565b90600052602060002090601f016020900481019282613cde5760008555613d24565b82601f10613cf757805160ff1916838001178555613d24565b82800160010185558215613d24579182015b82811115613d24578251825591602001919060010190613d09565b50613d30929150613dfe565b5090565b508054613d40906148b9565b6000825580601f10613d50575050565b601f016020900490600052602060002090810190610e189190613dfe565b828054828255906000526020600020908101928215613d24579160200282015b82811115613d24578235825591602001919060010190613d8e565b828054828255906000526020600020908101928215613d24579160200282015b82811115613d2457825182546001600160a01b0319166001600160a01b03909116178255602090920191600190910190613dc9565b5b80821115613d305760008155600101613dff565b60008083601f840112613e2557600080fd5b5081356001600160401b03811115613e3c57600080fd5b6020830191508360208260051b8501011115613e5757600080fd5b9250929050565b80358015158114613e6e57600080fd5b919050565b60008083601f840112613e8557600080fd5b5081356001600160401b03811115613e9c57600080fd5b602083019150836020828501011115613e5757600080fd5b600060208284031215613ec657600080fd5b8135611aad81614967565b600060208284031215613ee357600080fd5b8151611aad81614967565b60008060408385031215613f0157600080fd5b8235613f0c81614967565b91506020830135613f1c81614967565b809150509250929050565b600080600060608486031215613f3c57600080fd5b8335613f4781614967565b92506020840135613f5781614967565b929592945050506040919091013590565b600080600080600060808688031215613f8057600080fd5b8535613f8b81614967565b94506020860135613f9b81614967565b93506040860135925060608601356001600160401b03811115613fbd57600080fd5b613fc988828901613e73565b969995985093965092949392505050565b60008060408385031215613fed57600080fd5b8235613ff881614967565b915061400660208401613e5e565b90509250929050565b60008060008060008060a0878903121561402857600080fd5b863561403381614967565b955060208701356001600160401b0381111561404e57600080fd5b61405a89828a01613e73565b909650945061406d905060408801613e5e565b925061407b60608801613e5e565b915061408960808801613e5e565b90509295509295509295565b600080604083850312156140a857600080fd5b82356140b381614967565b946020939093013593505050565b600080600080606085870312156140d757600080fd5b84356140e281614967565b93506020850135925060408501356001600160401b0381111561410457600080fd5b61411087828801613e73565b95989497509550505050565b6000806020838503121561412f57600080fd5b82356001600160401b0381111561414557600080fd5b61415185828601613e13565b90969095509350505050565b60008060006060848603121561417257600080fd5b83516001600160f81b03198116811461418a57600080fd5b602085015160409095015190969495509392505050565b6000602082840312156141b357600080fd5b5035919050565b600080604083850312156141cd57600080fd5b823591506020830135613f1c81614967565b6000806000606084860312156141f457600080fd5b83359250602084013561420681614967565b9150604084013561421681614967565b809150509250925092565b60008060008060008060008060c0898b03121561423d57600080fd5b88359750602089013561424f81614967565b9650604089013561425f81614967565b95506060890135945060808901356001600160401b038082111561428257600080fd5b61428e8c838d01613e73565b909650945060a08b01359150808211156142a757600080fd5b506142b48b828c01613e73565b999c989b5096995094979396929594505050565b6000806000606084860312156142dd57600080fd5b833592506020840135613f5781614967565b60008060008060006080868803121561430757600080fd5b853594506020860135613f9b81614967565b60008060006040848603121561432e57600080fd5b8335925060208401356001600160401b0381111561434b57600080fd5b61435786828701613e13565b9497909650939450505050565b6000806000806060858703121561437a57600080fd5b8435935060208501356001600160401b0381111561439757600080fd5b6143a387828801613e73565b9598909750949560400135949350505050565b600080600080606085870312156143cc57600080fd5b843593506020850135925060408501356001600160401b0381111561410457600080fd5b60008060006040848603121561440557600080fd5b8335925060208401356001600160401b0381111561442257600080fd5b61435786828701613e73565b81835281816020850137506000828201602090810191909152601f909101601f19169091010190565b6000815180845261446f81602086016020860161488d565b601f01601f19169290920160200192915050565b6000825161449581846020870161488d565b9190910192915050565b60018060a01b03851681528360208201526080604082015260006144c66080830185614457565b82810360608401526144d88185614457565b979650505050505050565b6020808252825182820181905260009190848201906040850190845b818110156145245783516001600160a01b0316835292840192918401916001016144ff565b50909695505050505050565b6020808252825182820181905260009190848201906040850190845b818110156145245783518352928401929184019160010161454c565b600061010080835261457d8184018c8e61442e565b602084018b90526001600160a01b038a8116604086015289811660608601528816608085015260a0840187905283810360c085015290506145be8186614457565b905082810360e08401526145d28185614457565b9c9b505050505050505050505050565b60006101008083526145f68184018c614457565b602084018b90526001600160a01b038a8116604086015289811660608601528816608085015260a0840187905283810360c085015290506146378186614457565b905082810360e084015261464b8185614457565b9b9a5050505050505050505050565b60408152600061466e60408301858761442e565b9050826020830152949350505050565b602081526000611aad6020830184614457565b6040815260006146a46040830185614457565b90508260208301529392505050565b6060815260006146c66060830186614457565b60208301949094525060400152919050565b6020808252600290820152610d4d60f21b604082015260600190565b602080825260029082015261035360f41b604082015260600190565b6020808252600290820152611a9b60f11b604082015260600190565b602080825260029082015261353560f01b604082015260600190565b6020808252818101527f4f776e61626c653a2063616c6c6572206973206e6f7420746865206f776e6572604082015260600190565b602080825260029082015261353360f01b604082015260600190565b6020808252600290820152611a9960f11b604082015260600190565b602080825260029082015261353760f01b604082015260600190565b8281526040602082015260006110966040830184614457565b8281526060602082015260006148036060830184614457565b828103604084015260008152602081019150509392505050565b600082198211156148305761483061490f565b500190565b60008261485257634e487b7160e01b600052601260045260246000fd5b500490565b60008160001904831182151516156148715761487161490f565b500290565b6000828210156148885761488861490f565b500390565b60005b838110156148a8578181015183820152602001614890565b83811115610ddd5750506000910152565b600181811c908216806148cd57607f821691505b602082108114156148ee57634e487b7160e01b600052602260045260246000fd5b50919050565b60006000198214156149085761490861490f565b5060010190565b634e487b7160e01b600052601160045260246000fd5b634e487b7160e01b600052603160045260246000fd5b634e487b7160e01b600052603260045260246000fd5b634e487b7160e01b600052604160045260246000fd5b6001600160a01b0381168114610e1857600080fdfeddf252ad1be2c89b69c2b068fc378daa952ba7f163c4a11628f55a4df523b3efa26469706673582212202ffa31b54f849fe1faa0f48768336f20db5b543f681344b64e5ea9f872b37cf964736f6c63430008070033",
  "immutableReferences": {},
  "source": "// SPDX-License-Identifier: Apache-2.0\n/*\n * This code has not been reviewed.\n * Do not use or deploy this code before reviewing it personally first.\n */\npragma solidity ^0.8.0;\n\nimport \"../ERC1400.sol\";\n\n/**\n * @notice Interface to the extension types\n */\ninterface IExtensionTypes {\n  enum CertificateValidation {\n    None,\n    NonceBased,\n    SaltBased\n  }\n}\n\n/**\n * @notice Interface to the extension contract\n */\nabstract contract Extension is IExtensionTypes {\n  function registerTokenSetup(\n    address token,\n    CertificateValidation certificateActivated,\n    bool allowlistActivated,\n    bool blocklistActivated,\n    bool granularityByPartitionActivated,\n    bool holdsActivated,\n    address[] calldata operators\n  ) external virtual;\n\n  function addCertificateSigner(\n    address token,\n    address account\n  ) external virtual;\n}\n\n\n/**\n * @title ERC1400HoldableCertificateNonceToken\n * @dev Holdable ERC1400 with nonce-based certificate controller logic\n */\ncontract ERC1400HoldableCertificateToken is ERC1400, IExtensionTypes {\n\n  /**\n   * @dev Initialize ERC1400 + initialize certificate controller.\n   * @param name Name of the token.\n   * @param symbol Symbol of the token.\n   * @param granularity Granularity of the token.\n   * @param controllers Array of initial controllers.\n   * @param defaultPartitions Partitions chosen by default, when partition is\n   * not specified, like the case ERC20 tranfers.\n   * @param extension Address of token extension.\n   * @param newOwner Address whom contract ownership shall be transferred to.\n   * @param certificateSigner Address of the off-chain service which signs the\n   * conditional ownership certificates required for token transfers, issuance,\n   * redemption (Cf. CertificateController.sol).\n   * @param certificateActivated If set to 'true', the certificate controller\n   * is activated at contract creation.\n   */\n  constructor(\n    string memory name,\n    string memory symbol,\n    uint256 granularity,\n    address[] memory controllers,\n    bytes32[] memory defaultPartitions,\n    address extension,\n    address newOwner,\n    address certificateSigner,\n    CertificateValidation certificateActivated\n  )\n    ERC1400(name, symbol, granularity, controllers, defaultPartitions)\n  {\n    if(extension != address(0)) {\n      Extension(extension).registerTokenSetup(\n        address(this), // token\n        certificateActivated, // certificateActivated\n        true, // allowlistActivated\n        true, // blocklistActivated\n        true, // granularityByPartitionActivated\n        true, // holdsActivated\n        controllers // token controllers\n      );\n\n      if(certificateSigner != address(0)) {\n        Extension(extension).addCertificateSigner(address(this), certificateSigner);\n      }\n\n      _setTokenExtension(extension, ERC1400_TOKENS_VALIDATOR, true, true, true);\n    }\n\n    if(newOwner != address(0)) {\n      transferOwnership(newOwner);\n    }\n  }\n\n  /************************************** Transfer Validity ***************************************/\n  /**\n   * @dev Know the reason on success or failure based on the EIP-1066 application-specific status codes.\n   * @param partition Name of the partition.\n   * @param to Token recipient.\n   * @param value Number of tokens to transfer.\n   * @param data Information attached to the transfer, by the token holder. [CONTAINS THE CONDITIONAL OWNERSHIP CERTIFICATE]\n   * @return ESC (Ethereum Status Code) following the EIP-1066 standard.\n   * @return Additional bytes32 parameter that can be used to define\n   * application specific reason codes with additional details (for example the\n   * transfer restriction rule responsible for making the transfer operation invalid).\n   * @return Destination partition.\n   */\n  function canTransferByPartition(bytes32 partition, address to, uint256 value, bytes calldata data)\n    external\n    view\n    returns (bytes1, bytes32, bytes32)\n  {\n    return ERC1400._canTransfer(\n      _replaceFunctionSelector(this.transferByPartition.selector, msg.data), // 0xf3d490db: 4 first bytes of keccak256(transferByPartition(bytes32,address,uint256,bytes))\n      partition,\n      msg.sender,\n      msg.sender,\n      to,\n      value,\n      data,\n      \"\"\n    );\n  }\n  /**\n   * @dev Know the reason on success or failure based on the EIP-1066 application-specific status codes.\n   * @param partition Name of the partition.\n   * @param from Token holder.\n   * @param to Token recipient.\n   * @param value Number of tokens to transfer.\n   * @param data Information attached to the transfer. [CAN CONTAIN THE DESTINATION PARTITION]\n   * @param operatorData Information attached to the transfer, by the operator. [CONTAINS THE CONDITIONAL OWNERSHIP CERTIFICATE]\n   * @return ESC (Ethereum Status Code) following the EIP-1066 standard.\n   * @return Additional bytes32 parameter that can be used to define\n   * application specific reason codes with additional details (for example the\n   * transfer restriction rule responsible for making the transfer operation invalid).\n   * @return Destination partition.\n   */\n  function canOperatorTransferByPartition(bytes32 partition, address from, address to, uint256 value, bytes calldata data, bytes calldata operatorData)\n    external\n    view\n    returns (bytes1, bytes32, bytes32)\n  {\n    return ERC1400._canTransfer(\n      _replaceFunctionSelector(this.operatorTransferByPartition.selector, msg.data), // 0x8c0dee9c: 4 first bytes of keccak256(operatorTransferByPartition(bytes32,address,address,uint256,bytes,bytes))\n      partition,\n      msg.sender,\n      from,\n      to,\n      value,\n      data,\n      operatorData\n    );\n  }\n  /**\n   * @dev Replace function selector\n   * @param functionSig Replacement function selector.\n   * @param payload Payload, where function selector needs to be replaced.\n   */\n  function _replaceFunctionSelector(bytes4 functionSig, bytes memory payload) internal pure returns(bytes memory) {\n    bytes memory updatedPayload = new bytes(payload.length);\n    for (uint i = 0; i<4; i++){\n      updatedPayload[i] = functionSig[i];\n    }\n    for (uint j = 4; j<payload.length; j++){\n      updatedPayload[j] = payload[j];\n    }\n    return updatedPayload;\n  }\n  /************************************************************************************************/\n\n}",
  "sourcePath": "/Users/trongcauta/Documents/repository/artatech/smartcontract/UniversalToken/contracts/certificate/ERC1400HoldableCertificateToken.sol",
  "compiler": {
    "name": "solc",
    "version": "0.8.7+commit.e28d00a7.Emscripten.clang"
  },
  "schemaVersion": "3.4.2",
  "updatedAt": "2023-01-31T06:25:30.951Z",
  "devdoc": {
    "details": "Holdable ERC1400 with nonce-based certificate controller logic",
    "kind": "dev",
    "methods": {
      "allowance(address,address)": {
        "details": "Check the value of tokens that an owner allowed to a spender.",
        "params": {
          "owner": "address The address which owns the funds.",
          "spender": "address The address which will spend the funds."
        },
        "returns": {
          "_0": "A uint256 specifying the value of tokens still available for the spender."
        }
      },
      "allowanceByPartition(bytes32,address,address)": {
        "details": "Check the value of tokens that an owner allowed to a spender.",
        "params": {
          "owner": "address The address which owns the funds.",
          "partition": "Name of the partition.",
          "spender": "address The address which will spend the funds."
        },
        "returns": {
          "_0": "A uint256 specifying the value of tokens still available for the spender."
        }
      },
      "approve(address,uint256)": {
        "details": "Approve the passed address to spend the specified amount of tokens on behalf of 'msg.sender'.",
        "params": {
          "spender": "The address which will spend the funds.",
          "value": "The amount of tokens to be spent."
        },
        "returns": {
          "_0": "A boolean that indicates if the operation was successful."
        }
      },
      "approveByPartition(bytes32,address,uint256)": {
        "details": "Approve the passed address to spend the specified amount of tokens on behalf of 'msg.sender'.",
        "params": {
          "partition": "Name of the partition.",
          "spender": "The address which will spend the funds.",
          "value": "The amount of tokens to be spent."
        },
        "returns": {
          "_0": "A boolean that indicates if the operation was successful."
        }
      },
      "authorizeOperator(address)": {
        "details": "Set a third party operator address as an operator of 'msg.sender' to transfer and redeem tokens on its behalf.",
        "params": {
          "operator": "Address to set as an operator for 'msg.sender'."
        }
      },
      "authorizeOperatorByPartition(bytes32,address)": {
        "details": "Set 'operator' as an operator for 'msg.sender' for a given partition.",
        "params": {
          "operator": "Address to set as an operator for 'msg.sender'.",
          "partition": "Name of the partition."
        }
      },
      "balanceOf(address)": {
        "details": "Get the balance of the account with address 'tokenHolder'.",
        "params": {
          "tokenHolder": "Address for which the balance is returned."
        },
        "returns": {
          "_0": "Amount of token held by 'tokenHolder' in the token contract."
        }
      },
      "balanceOfByPartition(bytes32,address)": {
        "details": "Get balance of a tokenholder for a specific partition.",
        "params": {
          "partition": "Name of the partition.",
          "tokenHolder": "Address for which the balance is returned."
        },
        "returns": {
          "_0": "Amount of token of partition 'partition' held by 'tokenHolder' in the token contract."
        }
      },
      "canOperatorTransferByPartition(bytes32,address,address,uint256,bytes,bytes)": {
        "details": "Know the reason on success or failure based on the EIP-1066 application-specific status codes.",
        "params": {
          "data": "Information attached to the transfer. [CAN CONTAIN THE DESTINATION PARTITION]",
          "from": "Token holder.",
          "operatorData": "Information attached to the transfer, by the operator. [CONTAINS THE CONDITIONAL OWNERSHIP CERTIFICATE]",
          "partition": "Name of the partition.",
          "to": "Token recipient.",
          "value": "Number of tokens to transfer."
        },
        "returns": {
          "_0": "ESC (Ethereum Status Code) following the EIP-1066 standard.",
          "_1": "Additional bytes32 parameter that can be used to define application specific reason codes with additional details (for example the transfer restriction rule responsible for making the transfer operation invalid).",
          "_2": "Destination partition."
        }
      },
      "canTransferByPartition(bytes32,address,uint256,bytes)": {
        "details": "Know the reason on success or failure based on the EIP-1066 application-specific status codes.",
        "params": {
          "data": "Information attached to the transfer, by the token holder. [CONTAINS THE CONDITIONAL OWNERSHIP CERTIFICATE]",
          "partition": "Name of the partition.",
          "to": "Token recipient.",
          "value": "Number of tokens to transfer."
        },
        "returns": {
          "_0": "ESC (Ethereum Status Code) following the EIP-1066 standard.",
          "_1": "Additional bytes32 parameter that can be used to define application specific reason codes with additional details (for example the transfer restriction rule responsible for making the transfer operation invalid).",
          "_2": "Destination partition."
        }
      },
      "constructor": {
        "details": "Initialize ERC1400 + initialize certificate controller.",
        "params": {
          "certificateActivated": "If set to 'true', the certificate controller is activated at contract creation.",
          "certificateSigner": "Address of the off-chain service which signs the conditional ownership certificates required for token transfers, issuance, redemption (Cf. CertificateController.sol).",
          "controllers": "Array of initial controllers.",
          "defaultPartitions": "Partitions chosen by default, when partition is not specified, like the case ERC20 tranfers.",
          "extension": "Address of token extension.",
          "granularity": "Granularity of the token.",
          "name": "Name of the token.",
          "newOwner": "Address whom contract ownership shall be transferred to.",
          "symbol": "Symbol of the token."
        }
      },
      "controllers()": {
        "details": "Get the list of controllers as defined by the token contract.",
        "returns": {
          "_0": "List of addresses of all the controllers."
        }
      },
      "controllersByPartition(bytes32)": {
        "details": "Get controllers for a given partition.",
        "params": {
          "partition": "Name of the partition."
        },
        "returns": {
          "_0": "Array of controllers for partition."
        }
      },
      "decimals()": {
        "details": "Get the number of decimals of the token.",
        "returns": {
          "_0": "The number of decimals of the token. For retrocompatibility, decimals are forced to 18 in ERC1400."
        }
      },
      "getDefaultPartitions()": {
        "details": "Get default partitions to transfer from. Function used for ERC20 retrocompatibility. For example, a security token may return the bytes32(\"unrestricted\").",
        "returns": {
          "_0": "Array of default partitions."
        }
      },
      "getDocument(bytes32)": {
        "details": "Access a document associated with the token.",
        "params": {
          "documentName": "Short name (represented as a bytes32) associated to the document."
        },
        "returns": {
          "_0": "Requested document + document hash + document timestamp."
        }
      },
      "granularity()": {
        "details": "Get the smallest part of the token thats not divisible.",
        "returns": {
          "_0": "The smallest non-divisible part of the token."
        }
      },
      "isControllable()": {
        "details": "Know if the token can be controlled by operators. If a token returns 'false' for 'isControllable()'' then it MUST always return 'false' in the future.",
        "returns": {
          "_0": "bool 'true' if the token can still be controlled by operators, 'false' if it can't anymore."
        }
      },
      "isIssuable()": {
        "details": "Know if new tokens can be issued in the future.",
        "returns": {
          "_0": "bool 'true' if tokens can still be issued by the issuer, 'false' if they can't anymore."
        }
      },
      "isOperator(address,address)": {
        "details": "Indicate whether the operator address is an operator of the tokenHolder address.",
        "params": {
          "operator": "Address which may be an operator of tokenHolder.",
          "tokenHolder": "Address of a token holder which may have the operator address as an operator."
        },
        "returns": {
          "_0": "'true' if operator is an operator of 'tokenHolder' and 'false' otherwise."
        }
      },
      "isOperatorForPartition(bytes32,address,address)": {
        "details": "Indicate whether the operator address is an operator of the tokenHolder address for the given partition.",
        "params": {
          "operator": "Address which may be an operator of tokenHolder for the given partition.",
          "partition": "Name of the partition.",
          "tokenHolder": "Address of a token holder which may have the operator address as an operator for the given partition."
        },
        "returns": {
          "_0": "'true' if 'operator' is an operator of 'tokenHolder' for partition 'partition' and 'false' otherwise."
        }
      },
      "issue(address,uint256,bytes)": {
        "details": "Issue tokens from default partition.",
        "params": {
          "data": "Information attached to the issuance, by the issuer.",
          "tokenHolder": "Address for which we want to issue tokens.",
          "value": "Number of tokens issued."
        }
      },
      "issueByPartition(bytes32,address,uint256,bytes)": {
        "details": "Issue tokens from a specific partition.",
        "params": {
          "data": "Information attached to the issuance, by the issuer.",
          "partition": "Name of the partition.",
          "tokenHolder": "Address for which we want to issue tokens.",
          "value": "Number of tokens issued."
        }
      },
      "migrate(address,bool)": {
        "details": "Migrate contract. ===> CAUTION: DEFINITIVE ACTION  This function shall be called once a new version of the smart contract has been created. Once this function is called:  - The address of the new smart contract is set in ERC1820 registry  - If the choice is definitive, the current smart contract is turned off and can never be used again",
        "params": {
          "definitive": "If set to 'true' the contract is turned off definitely.",
          "newContractAddress": "Address of the new version of the smart contract."
        }
      },
      "name()": {
        "details": "Get the name of the token, e.g., \"MyToken\".",
        "returns": {
          "_0": "Name of the token."
        }
      },
      "operatorRedeemByPartition(bytes32,address,uint256,bytes)": {
        "details": "Redeem tokens of a specific partition.",
        "params": {
          "operatorData": "Information attached to the redemption, by the operator.",
          "partition": "Name of the partition.",
          "tokenHolder": "Address for which we want to redeem tokens.",
          "value": "Number of tokens redeemed"
        }
      },
      "operatorTransferByPartition(bytes32,address,address,uint256,bytes,bytes)": {
        "details": "Transfer tokens from a specific partition through an operator.",
        "params": {
          "data": "Information attached to the transfer. [CAN CONTAIN THE DESTINATION PARTITION]",
          "from": "Token holder.",
          "operatorData": "Information attached to the transfer, by the operator.",
          "partition": "Name of the partition.",
          "to": "Token recipient.",
          "value": "Number of tokens to transfer."
        },
        "returns": {
          "_0": "Destination partition."
        }
      },
      "owner()": {
        "details": "Returns the address of the current owner."
      },
      "partitionsOf(address)": {
        "details": "Get partitions index of a tokenholder.",
        "params": {
          "tokenHolder": "Address for which the partitions index are returned."
        },
        "returns": {
          "_0": "Array of partitions index of 'tokenHolder'."
        }
      },
      "redeem(uint256,bytes)": {
        "details": "Redeem the amount of tokens from the address 'msg.sender'.",
        "params": {
          "data": "Information attached to the redemption, by the token holder.",
          "value": "Number of tokens to redeem."
        }
      },
      "redeemByPartition(bytes32,uint256,bytes)": {
        "details": "Redeem tokens of a specific partition.",
        "params": {
          "data": "Information attached to the redemption, by the redeemer.",
          "partition": "Name of the partition.",
          "value": "Number of tokens redeemed."
        }
      },
      "redeemFrom(address,uint256,bytes)": {
        "details": "Redeem the amount of tokens on behalf of the address from.",
        "params": {
          "data": "Information attached to the redemption.",
          "from": "Token holder whose tokens will be redeemed (or address(0) to set from to msg.sender).",
          "value": "Number of tokens to redeem."
        }
      },
      "renounceControl()": {
        "details": "Definitely renounce the possibility to control tokens on behalf of tokenHolders. Once set to false, '_isControllable' can never be set to 'true' again."
      },
      "renounceIssuance()": {
        "details": "Definitely renounce the possibility to issue new tokens. Once set to false, '_isIssuable' can never be set to 'true' again."
      },
      "renounceOwnership()": {
        "details": "Leaves the contract without owner. It will not be possible to call `onlyOwner` functions anymore. Can only be called by the current owner. NOTE: Renouncing ownership will leave the contract without an owner, thereby removing any functionality that is only available to the owner."
      },
      "revokeOperator(address)": {
        "details": "Remove the right of the operator address to be an operator for 'msg.sender' and to transfer and redeem tokens on its behalf.",
        "params": {
          "operator": "Address to rescind as an operator for 'msg.sender'."
        }
      },
      "revokeOperatorByPartition(bytes32,address)": {
        "details": "Remove the right of the operator address to be an operator on a given partition for 'msg.sender' and to transfer and redeem tokens on its behalf.",
        "params": {
          "operator": "Address to rescind as an operator on given partition for 'msg.sender'.",
          "partition": "Name of the partition."
        }
      },
      "setControllers(address[])": {
        "details": "Set list of token controllers.",
        "params": {
          "operators": "Controller addresses."
        }
      },
      "setDefaultPartitions(bytes32[])": {
        "details": "Set default partitions to transfer from. Function used for ERC20 retrocompatibility.",
        "params": {
          "partitions": "partitions to use by default when not specified."
        }
      },
      "setDocument(bytes32,string,bytes32)": {
        "details": "Associate a document with the token.",
        "params": {
          "documentHash": "Hash of the document [optional parameter].",
          "documentName": "Short name (represented as a bytes32) associated to the document.",
          "uri": "Document content."
        }
      },
      "setPartitionControllers(bytes32,address[])": {
        "details": "Set list of token partition controllers.",
        "params": {
          "operators": "Controller addresses.",
          "partition": "Name of the partition."
        }
      },
      "setTokenExtension(address,string,bool,bool,bool)": {
        "details": "Set token extension contract address. The extension contract can for example verify \"ERC1400TokensValidator\" or \"ERC1400TokensChecker\" interfaces. If the extension is an \"ERC1400TokensValidator\", it will be called everytime a transfer is executed.",
        "params": {
          "addControllerRoleForExtension": "If set to 'true', the extension contract will be added as controller.",
          "addMinterRoleForExtension": "If set to 'true', the extension contract will be added as minter.",
          "extension": "Address of the extension contract.",
          "interfaceLabel": "Interface label of extension contract.",
          "removeOldExtensionRoles": "If set to 'true', the roles of the old extension(minter, controller) will be removed extension."
        }
      },
      "symbol()": {
        "details": "Get the symbol of the token, e.g., \"MYT\".",
        "returns": {
          "_0": "Symbol of the token."
        }
      },
      "totalPartitions()": {
        "details": "Get list of existing partitions.",
        "returns": {
          "_0": "Array of all exisiting partitions."
        }
      },
      "totalSupply()": {
        "details": "Get the total number of issued tokens.",
        "returns": {
          "_0": "Total supply of tokens currently in circulation."
        }
      },
      "totalSupplyByPartition(bytes32)": {
        "details": "Get the total number of issued tokens for a given partition.",
        "params": {
          "partition": "Name of the partition."
        },
        "returns": {
          "_0": "Total supply of tokens currently in circulation, for a given partition."
        }
      },
      "transfer(address,uint256)": {
        "details": "Transfer token for a specified address.",
        "params": {
          "to": "The address to transfer to.",
          "value": "The value to be transferred."
        },
        "returns": {
          "_0": "A boolean that indicates if the operation was successful."
        }
      },
      "transferByPartition(bytes32,address,uint256,bytes)": {
        "details": "Transfer tokens from a specific partition.",
        "params": {
          "data": "Information attached to the transfer, by the token holder.",
          "partition": "Name of the partition.",
          "to": "Token recipient.",
          "value": "Number of tokens to transfer."
        },
        "returns": {
          "_0": "Destination partition."
        }
      },
      "transferFrom(address,address,uint256)": {
        "details": "Transfer tokens from one address to another.",
        "params": {
          "from": "The address which you want to transfer tokens from.",
          "to": "The address which you want to transfer to.",
          "value": "The amount of tokens to be transferred."
        },
        "returns": {
          "_0": "A boolean that indicates if the operation was successful."
        }
      },
      "transferFromWithData(address,address,uint256,bytes)": {
        "details": "Transfer the amount of tokens on behalf of the address 'from' to the address 'to'.",
        "params": {
          "data": "Information attached to the transfer, and intended for the token holder ('from').",
          "from": "Token holder (or 'address(0)' to set from to 'msg.sender').",
          "to": "Token recipient.",
          "value": "Number of tokens to transfer."
        }
      },
      "transferOwnership(address)": {
        "details": "Transfers ownership of the contract to a new account (`newOwner`). Can only be called by the current owner."
      },
      "transferWithData(address,uint256,bytes)": {
        "details": "Transfer the amount of tokens from the address 'msg.sender' to the address 'to'.",
        "params": {
          "data": "Information attached to the transfer, by the token holder.",
          "to": "Token recipient.",
          "value": "Number of tokens to transfer."
        }
      }
    },
    "title": "ERC1400HoldableCertificateNonceToken",
    "version": 1
  },
  "userdoc": {
    "kind": "user",
    "methods": {},
    "version": 1
  }
}