{
  "contractName": "ERC1400TokensRecipientMock",
  "abi": [
    {
      "inputs": [],
      "stateMutability": "nonpayable",
      "type": "constructor"
    },
    {
      "inputs": [
        {
          "internalType": "bytes32",
          "name": "interfaceHash",
          "type": "bytes32"
        },
        {
          "internalType": "address",
          "name": "",
          "type": "address"
        }
      ],
      "name": "canImplementInterfaceForAddress",
      "outputs": [
        {
          "internalType": "bytes32",
          "name": "",
          "type": "bytes32"
        }
      ],
      "stateMutability": "view",
      "type": "function"
    },
    {
      "inputs": [
        {
          "internalType": "bytes",
          "name": "",
          "type": "bytes"
        },
        {
          "internalType": "bytes32",
          "name": "",
          "type": "bytes32"
        },
        {
          "internalType": "address",
          "name": "",
          "type": "address"
        },
        {
          "internalType": "address",
          "name": "from",
          "type": "address"
        },
        {
          "internalType": "address",
          "name": "to",
          "type": "address"
        },
        {
          "internalType": "uint256",
          "name": "value",
          "type": "uint256"
        },
        {
          "internalType": "bytes",
          "name": "data",
          "type": "bytes"
        },
        {
          "internalType": "bytes",
          "name": "",
          "type": "bytes"
        }
      ],
      "name": "canReceive",
      "outputs": [
        {
          "internalType": "bool",
          "name": "",
          "type": "bool"
        }
      ],
      "stateMutability": "pure",
      "type": "function"
    },
    {
      "inputs": [
        {
          "internalType": "bytes",
          "name": "",
          "type": "bytes"
        },
        {
          "internalType": "bytes32",
          "name": "",
          "type": "bytes32"
        },
        {
          "internalType": "address",
          "name": "",
          "type": "address"
        },
        {
          "internalType": "address",
          "name": "from",
          "type": "address"
        },
        {
          "internalType": "address",
          "name": "to",
          "type": "address"
        },
        {
          "internalType": "uint256",
          "name": "value",
          "type": "uint256"
        },
        {
          "internalType": "bytes",
          "name": "data",
          "type": "bytes"
        },
        {
          "internalType": "bytes",
          "name": "",
          "type": "bytes"
        }
      ],
      "name": "tokensReceived",
      "outputs": [],
      "stateMutability": "pure",
      "type": "function"
    }
  ],
  "bytecode": "0x608060405234801561001057600080fd5b506100596040518060400160405280601681526020017f45524331343030546f6b656e73526563697069656e740000000000000000000081525061005e60201b6101dd1760201c565b6100e6565b60016000808360405160200161007491906100ab565b60408051808303601f19018152918152815160209283012083529082019290925201600020805460ff191691151591909117905550565b6000825160005b818110156100cc57602081860181015185830152016100b2565b818111156100db576000828501525b509190910192915050565b61043d806100f56000396000f3fe608060405234801561001057600080fd5b50600436106100415760003560e01c8063249cb3fa14610046578063f464b5761461006c578063f55886df14610081575b600080fd5b6100596100543660046102be565b6100a4565b6040519081526020015b60405180910390f35b61007f61007a3660046102ea565b610105565b005b61009461008f3660046102ea565b610189565b6040519015158152602001610063565b60008281526020819052604081205460ff16156100fb5760405173455243313832305f4143434550545f4d4147494360601b60208201526034016040516020818303038152906040528051906020012090506100ff565b5060005b92915050565b61014787878787878080601f01602080910402602001604051908101604052809392919081815260200183838082843760009201919091525061022a92505050565b61017c5760405162461bcd60e51b8152602060048201526002602482015261353760f01b604482015260640160405180910390fd5b5050505050505050505050565b60006101cd88888888888080601f01602080910402602001604051908101604052809392919081815260200183838082843760009201919091525061022a92505050565b9c9b505050505050505050505050565b6001600080836040516020016101f391906103cc565b60408051808303601f19018152918152815160209283012083529082019290925201600020805460ff191691151591909117905550565b6020810151600090601160f91b908082141561024b57600092505050610252565b6001925050505b949350505050565b80356001600160a01b038116811461027157600080fd5b919050565b60008083601f84011261028857600080fd5b5081356001600160401b0381111561029f57600080fd5b6020830191508360208285010111156102b757600080fd5b9250929050565b600080604083850312156102d157600080fd5b823591506102e16020840161025a565b90509250929050565b60008060008060008060008060008060006101008c8e03121561030c57600080fd5b6001600160401b038c3581101561032257600080fd5b61032f8e8e358f01610276565b909c509a5060208d0135995061034760408e0161025a565b985061035560608e0161025a565b975061036360808e0161025a565b965060a08d013595508060c08e0135111561037d57600080fd5b61038d8e60c08f01358f01610276565b909550935060e08d01358110156103a357600080fd5b506103b48d60e08e01358e01610276565b81935080925050509295989b509295989b9093969950565b6000825160005b818110156103ed57602081860181015185830152016103d3565b818111156103fc576000828501525b50919091019291505056fea2646970667358221220ec2284d631c8e15c07a86b6d2751af9a562a8ae27e9840375b2aa99b7d12a00e64736f6c63430008070033",
  "immutableReferences": {},
  "source": "// SPDX-License-Identifier: Apache-2.0\npragma solidity ^0.8.0;\n\nimport \"../extensions/userExtensions/IERC1400TokensRecipient.sol\";\nimport \"../interface/ERC1820Implementer.sol\";\n\n\ncontract ERC1400TokensRecipientMock is IERC1400TokensRecipient, ERC1820Implementer {\n\n  string constant internal ERC1400_TOKENS_RECIPIENT = \"ERC1400TokensRecipient\";\n\n  constructor() {\n    ERC1820Implementer._setInterface(ERC1400_TOKENS_RECIPIENT);\n  }\n\n  function canReceive(\n    bytes calldata /*payload*/,\n    bytes32 /*partition*/,\n    address /*operator*/,\n    address from,\n    address to,\n    uint value,\n    bytes calldata data,\n    bytes calldata /*operatorData*/\n  ) // Comments to avoid compilation warnings for unused variables.\n    external\n    override\n    pure\n    returns(bool)\n  {\n    return(_canReceive(from, to, value, data));\n  }\n\n  function tokensReceived(\n    bytes calldata /*payload*/,\n    bytes32 /*partition*/,\n    address /*operator*/,\n    address from,\n    address to,\n    uint value,\n    bytes calldata data,\n    bytes calldata /*operatorData*/\n  ) // Comments to avoid compilation warnings for unused variables.\n    external\n    override\n    pure\n  {\n    require(_canReceive(from, to, value, data), \"57\"); // 0x57\tinvalid receiver\n  }\n\n  function _canReceive(\n    address /*from*/,\n    address /*to*/,\n    uint /*value*/,\n    bytes memory data\n  ) // Comments to avoid compilation warnings for unused variables.\n    internal\n    pure\n    returns(bool)\n  {\n    bytes32 receiveRevert = 0x2200000000000000000000000000000000000000000000000000000000000000; // Default recipient hook failure data for the mock only\n    bytes32 data32;\n    assembly {\n        data32 := mload(add(data, 32))\n    }\n    if (data32 == receiveRevert) {\n      return false;\n    } else {\n      return true;\n    }\n  }\n\n}\n",
  "sourcePath": "/Users/trongcauta/Documents/repository/artatech/smartcontract/UniversalToken/contracts/mocks/ERC1400TokensRecipientMock.sol",
  "compiler": {
    "name": "solc",
    "version": "0.8.7+commit.e28d00a7.Emscripten.clang"
  },
  "schemaVersion": "3.4.2",
  "updatedAt": "2023-01-12T06:31:05.461Z",
  "devdoc": {
    "kind": "dev",
    "methods": {},
    "version": 1
  },
  "userdoc": {
    "kind": "user",
    "methods": {},
    "version": 1
  }
}